{
  "contractName": "IDOFactory",
  "abi": [
    {
      "inputs": [
        {
          "internalType": "contract ERC20Burnable",
          "name": "_feeToken",
          "type": "address"
        },
        {
          "internalType": "uint256",
          "name": "_feeAmount",
          "type": "uint256"
        },
        {
          "internalType": "uint256",
          "name": "_burnPercent",
          "type": "uint256"
        }
      ],
      "stateMutability": "nonpayable",
      "type": "constructor"
    },
    {
      "anonymous": false,
      "inputs": [
        {
          "indexed": false,
          "internalType": "uint256",
          "name": "newBurnPercent",
          "type": "uint256"
        },
        {
          "indexed": false,
          "internalType": "uint256",
          "name": "divider",
          "type": "uint256"
        }
      ],
      "name": "BurnPercentUpdated",
      "type": "event"
    },
    {
      "anonymous": false,
      "inputs": [
        {
          "indexed": false,
          "internalType": "uint256",
          "name": "newFeeAmount",
          "type": "uint256"
        }
      ],
      "name": "FeeAmountUpdated",
      "type": "event"
    },
    {
      "anonymous": false,
      "inputs": [
        {
          "indexed": false,
          "internalType": "address",
          "name": "newFeeWallet",
          "type": "address"
        }
      ],
      "name": "FeeWalletUpdated",
      "type": "event"
    },
    {
      "anonymous": false,
      "inputs": [
        {
          "indexed": true,
          "internalType": "address",
          "name": "owner",
          "type": "address"
        },
        {
          "indexed": false,
          "internalType": "address",
          "name": "idoPool",
          "type": "address"
        },
        {
          "indexed": true,
          "internalType": "address",
          "name": "rewardToken",
          "type": "address"
        },
        {
          "indexed": false,
          "internalType": "string",
          "name": "tokenURI",
          "type": "string"
        }
      ],
      "name": "IDOCreated",
      "type": "event"
    },
    {
      "anonymous": false,
      "inputs": [
        {
          "indexed": true,
          "internalType": "address",
          "name": "previousOwner",
          "type": "address"
        },
        {
          "indexed": true,
          "internalType": "address",
          "name": "newOwner",
          "type": "address"
        }
      ],
      "name": "OwnershipTransferred",
      "type": "event"
    },
    {
      "anonymous": false,
      "inputs": [
        {
          "indexed": false,
          "internalType": "address",
          "name": "newFeeToken",
          "type": "address"
        }
      ],
      "name": "TokenFeeUpdated",
      "type": "event"
    },
    {
      "inputs": [],
      "name": "burnPercent",
      "outputs": [
        {
          "internalType": "uint256",
          "name": "",
          "type": "uint256"
        }
      ],
      "stateMutability": "view",
      "type": "function",
      "constant": true
    },
    {
      "inputs": [],
      "name": "divider",
      "outputs": [
        {
          "internalType": "uint256",
          "name": "",
          "type": "uint256"
        }
      ],
      "stateMutability": "view",
      "type": "function",
      "constant": true
    },
    {
      "inputs": [],
      "name": "feeAmount",
      "outputs": [
        {
          "internalType": "uint256",
          "name": "",
          "type": "uint256"
        }
      ],
      "stateMutability": "view",
      "type": "function",
      "constant": true
    },
    {
      "inputs": [],
      "name": "feeToken",
      "outputs": [
        {
          "internalType": "contract ERC20Burnable",
          "name": "",
          "type": "address"
        }
      ],
      "stateMutability": "view",
      "type": "function",
      "constant": true
    },
    {
      "inputs": [],
      "name": "feeWallet",
      "outputs": [
        {
          "internalType": "address",
          "name": "",
          "type": "address"
        }
      ],
      "stateMutability": "view",
      "type": "function",
      "constant": true
    },
    {
      "inputs": [],
      "name": "owner",
      "outputs": [
        {
          "internalType": "address",
          "name": "",
          "type": "address"
        }
      ],
      "stateMutability": "view",
      "type": "function",
      "constant": true
    },
    {
      "inputs": [],
      "name": "renounceOwnership",
      "outputs": [],
      "stateMutability": "nonpayable",
      "type": "function"
    },
    {
      "inputs": [
        {
          "internalType": "address",
          "name": "newOwner",
          "type": "address"
        }
      ],
      "name": "transferOwnership",
      "outputs": [],
      "stateMutability": "nonpayable",
      "type": "function"
    },
    {
      "inputs": [
        {
          "internalType": "address",
          "name": "_newFeeToken",
          "type": "address"
        }
      ],
      "name": "setFeeToken",
      "outputs": [],
      "stateMutability": "nonpayable",
      "type": "function"
    },
    {
      "inputs": [
        {
          "internalType": "uint256",
          "name": "_newFeeAmount",
          "type": "uint256"
        }
      ],
      "name": "setFeeAmount",
      "outputs": [],
      "stateMutability": "nonpayable",
      "type": "function"
    },
    {
      "inputs": [
        {
          "internalType": "address",
          "name": "_newFeeWallet",
          "type": "address"
        }
      ],
      "name": "setFeeWallet",
      "outputs": [],
      "stateMutability": "nonpayable",
      "type": "function"
    },
    {
      "inputs": [
        {
          "internalType": "uint256",
          "name": "_newBurnPercent",
          "type": "uint256"
        },
        {
          "internalType": "uint256",
          "name": "_newDivider",
          "type": "uint256"
        }
      ],
      "name": "setBurnPercent",
      "outputs": [],
      "stateMutability": "nonpayable",
      "type": "function"
    },
    {
      "inputs": [
        {
          "internalType": "contract ERC20",
          "name": "_rewardToken",
          "type": "address"
        },
        {
          "internalType": "uint256",
          "name": "_tokenRate",
          "type": "uint256"
        },
        {
          "internalType": "uint256",
          "name": "_listingRate",
          "type": "uint256"
        },
        {
          "components": [
            {
              "internalType": "uint256",
              "name": "softCap",
              "type": "uint256"
            },
            {
              "internalType": "uint256",
              "name": "hardCap",
              "type": "uint256"
            },
            {
              "internalType": "uint256",
              "name": "minEthPayment",
              "type": "uint256"
            },
            {
              "internalType": "uint256",
              "name": "maxEthPayment",
              "type": "uint256"
            }
          ],
          "internalType": "struct IDOPool.Capacity",
          "name": "_capacity",
          "type": "tuple"
        },
        {
          "components": [
            {
              "internalType": "uint256",
              "name": "startTimestamp",
              "type": "uint256"
            },
            {
              "internalType": "uint256",
              "name": "finishTimestamp",
              "type": "uint256"
            },
            {
              "internalType": "uint256",
              "name": "unlockTimestamp",
              "type": "uint256"
            }
          ],
          "internalType": "struct IDOPool.Time",
          "name": "_time",
          "type": "tuple"
        },
        {
          "components": [
            {
              "internalType": "address",
              "name": "router",
              "type": "address"
            },
            {
              "internalType": "address",
              "name": "factory",
              "type": "address"
            },
            {
              "internalType": "address",
              "name": "weth",
              "type": "address"
            }
          ],
          "internalType": "struct IDOPool.Uniswap",
          "name": "_uniswap",
          "type": "tuple"
        },
        {
          "components": [
            {
              "internalType": "uint256",
              "name": "lpPercentage",
              "type": "uint256"
            },
            {
              "internalType": "address",
              "name": "lockerFactoryAddress",
              "type": "address"
            }
          ],
          "internalType": "struct IDOPool.LockInfo",
          "name": "_lockInfo",
          "type": "tuple"
        },
        {
          "internalType": "string",
          "name": "_tokenURI",
          "type": "string"
        }
      ],
      "name": "createIDO",
      "outputs": [
        {
          "internalType": "address",
          "name": "",
          "type": "address"
        }
      ],
      "stateMutability": "payable",
      "type": "function",
      "payable": true
    }
  ],
  "bytecode": "0x60806040523480156200001157600080fd5b50604051620044ab380380620044ab83398101604081905262000034916200011c565b6200003f3362000071565b600180546001600160a01b0319166001600160a01b039490941693909317909255600355600455606460055562000174565b600080546001600160a01b038381166001600160a01b0319831681178455604051919092169283917f8be0079c531659141344cd1fd0a4f28419497f9722a3daafe3b4186f6b6457e09190a35050565b60006001600160a01b0382165b92915050565b6000620000ce82620000c1565b620000ec81620000d4565b8114620000f857600080fd5b50565b8051620000ce81620000e1565b80620000ec565b8051620000ce8162000108565b600080600060608486031215620001365762000136600080fd5b6000620001448686620000fb565b935050602062000157868287016200010f565b92505060406200016a868287016200010f565b9150509250925092565b61432780620001846000396000f3fe608060405260043610620000d25760003560e01c80636b39268011620000895780638dc1299111620000605780638dc12991146200021257806390d49b9d1462000237578063f25f4b56146200025c578063f2fde38b146200027e57600080fd5b80636b39268014620001b5578063715018a614620001da5780638da5cb5b14620001f257600080fd5b806303807ee514620000d757806312d35967146200010757806315cce224146200012d578063378efa371462000154578063647846a5146200016c57806369e15404146200019d575b600080fd5b348015620000e457600080fd5b50620000ef60045481565b604051620000fe919062000aa5565b60405180910390f35b6200011e6200011836600462000dc8565b620002a3565b604051620000fe919062000eb8565b3480156200013a57600080fd5b50620001526200014c36600462000ec8565b62000507565b005b3480156200016157600080fd5b50620000ef60055481565b3480156200017957600080fd5b506001546200018e906001600160a01b031681565b604051620000fe919062000f05565b348015620001aa57600080fd5b50620000ef60035481565b348015620001c257600080fd5b5062000152620001d436600462000f15565b620005bc565b348015620001e757600080fd5b506200015262000620565b348015620001ff57600080fd5b506000546001600160a01b03166200011e565b3480156200021f57600080fd5b50620001526200023136600462000f3a565b6200065b565b3480156200024457600080fd5b50620001526200025636600462000ec8565b620006f5565b3480156200026957600080fd5b506002546200011e906001600160a01b031681565b3480156200028b57600080fd5b50620001526200029d36600462000ec8565b6200076f565b6003546000901562000395576000620002d8600554620002d1600454600354620007d390919063ffffffff16565b90620007ea565b600254600354919250620003139133916001600160a01b031690620002fe9085620007f8565b6001546001600160a01b031692919062000806565b6001546200032d906001600160a01b031633308462000806565b600154604051630852cd8d60e31b81526001600160a01b03909116906342966c68906200035f90849060040162000aa5565b600060405180830381600087803b1580156200037a57600080fd5b505af11580156200038f573d6000803e3d6000fd5b50505050505b60008989898989898989604051620003ad9062000a8f565b620003c0989796959493929190620010cc565b604051809103906000f080158015620003dd573d6000803e3d6000fd5b509050600062000411606486600001518a60200151620003fe919062001172565b6200040a9190620011aa565b8a62000868565b6200042189602001518c62000868565b6200042d9190620011c1565b60405163f2fde38b60e01b81529091506001600160a01b0383169063f2fde38b906200045e90339060040162000eb8565b600060405180830381600087803b1580156200047957600080fd5b505af11580156200048e573d6000803e3d6000fd5b50620004aa925050506001600160a01b038c1633848462000806565b8a6001600160a01b0316336001600160a01b03167ff71c11ab5bd622b01d634c5c9e59846d77ee252871f11645b7b8376ddd4dd3e28487604051620004f1929190620011d7565b60405180910390a3509998505050505050505050565b6000546001600160a01b031633146200053d5760405162461bcd60e51b8152600401620005349062001230565b60405180910390fd5b803b63ffffffff16620005645760405162461bcd60e51b8152600401620005349062001277565b600180546001600160a01b0319166001600160a01b0383161790556040517f9e892f555b0a5cac6c8cc33c82ebb9308207bd16dfdca9d0289b96d7e4186c8a90620005b190839062000eb8565b60405180910390a150565b6000546001600160a01b03163314620005e95760405162461bcd60e51b8152600401620005349062001230565b60038190556040517fbb128cd9921d003aff00ed910fe24b1655b2bf1f4a2090cc3523f61bdc17231690620005b190839062000aa5565b6000546001600160a01b031633146200064d5760405162461bcd60e51b8152600401620005349062001230565b62000659600062000883565b565b6000546001600160a01b03163314620006885760405162461bcd60e51b8152600401620005349062001230565b80821115620006ab5760405162461bcd60e51b81526004016200053490620012cf565b600482905560058190556040517fb62d69c6ddf4f4bd443dca17ea7405d8018efb872e82e77bb8ef13b5be2f2e9c90620006e99084908490620012e1565b60405180910390a15050565b6000546001600160a01b03163314620007225760405162461bcd60e51b8152600401620005349062001230565b600280546001600160a01b0319166001600160a01b0383161790556040517f29acee77dafcfa0143d74a7ea236018f3a6e1fa71e27fc59bbfbc6b8ca8edccd90620005b190839062000eb8565b6000546001600160a01b031633146200079c5760405162461bcd60e51b8152600401620005349062001230565b6001600160a01b038116620007c55760405162461bcd60e51b8152600401620005349062001344565b620007d08162000883565b50565b6000620007e1828462001172565b90505b92915050565b6000620007e18284620011aa565b6000620007e1828462001356565b62000862846323b872dd60e01b8585856040516024016200082a939291906200136c565b60408051601f198184030181529190526020810180516001600160e01b03166001600160e01b031990931692909217909152620008d3565b50505050565b6000620007e1670de0b6b3a7640000620002d18585620007d3565b600080546001600160a01b038381166001600160a01b0319831681178455604051919092169283917f8be0079c531659141344cd1fd0a4f28419497f9722a3daafe3b4186f6b6457e09190a35050565b60006200092a826040518060400160405280602081526020017f5361666545524332303a206c6f772d6c6576656c2063616c6c206661696c6564815250856001600160a01b03166200096f9092919063ffffffff16565b8051909150156200096a57808060200190518101906200094b9190620013b0565b6200096a5760405162461bcd60e51b815260040162000534906200141d565b505050565b60606200098084846000856200098a565b90505b9392505050565b606082471015620009af5760405162461bcd60e51b8152600401620005349062001473565b843b620009d05760405162461bcd60e51b81526004016200053490620014ba565b600080866001600160a01b03168587604051620009ee9190620014f1565b60006040518083038185875af1925050503d806000811462000a2d576040519150601f19603f3d011682016040523d82523d6000602084013e62000a32565b606091505b509150915062000a4482828662000a51565b925050505b949350505050565b6060831562000a6257508162000983565b82511562000a735782518084602001fd5b8160405162461bcd60e51b8152600401620005349190620014ff565b612ddf806200151383390190565b805b82525050565b60208101620007e4828462000a9d565b60006001600160a01b038216620007e4565b6000620007e48262000ab5565b62000adf8162000ac7565b8114620007d057600080fd5b8035620007e48162000ad4565b8062000adf565b8035620007e48162000af8565b634e487b7160e01b600052604160045260246000fd5b601f19601f830116810181811067ffffffffffffffff8211171562000b4b5762000b4b62000b0c565b6040525050565b600062000b5e60405190565b905062000b6c828262000b22565b919050565b60006080828403121562000b885762000b88600080fd5b62000b94608062000b52565b9050600062000ba4848462000aff565b825250602062000bb78484830162000aff565b602083015250604062000bcd8482850162000aff565b604083015250606062000be38482850162000aff565b60608301525092915050565b60006060828403121562000c065762000c06600080fd5b62000c12606062000b52565b9050600062000c22848462000aff565b825250602062000c358484830162000aff565b602083015250604062000c4b8482850162000aff565b60408301525092915050565b62000adf8162000ab5565b8035620007e48162000c57565b60006060828403121562000c865762000c86600080fd5b62000c92606062000b52565b9050600062000ca2848462000c62565b825250602062000cb58484830162000c62565b602083015250604062000c4b8482850162000c62565b60006040828403121562000ce25762000ce2600080fd5b62000cee604062000b52565b9050600062000cfe848462000aff565b825250602062000d118484830162000c62565b60208301525092915050565b600067ffffffffffffffff82111562000d3a5762000d3a62000b0c565b601f19601f83011660200192915050565b82818337506000910152565b600062000d6e62000d688462000d1d565b62000b52565b90508281526020810184848401111562000d8b5762000d8b600080fd5b62000d9884828562000d4b565b509392505050565b600082601f83011262000db65762000db6600080fd5b813562000a4984826020860162000d57565b600080600080600080600080610200898b03121562000dea5762000dea600080fd5b600062000df88b8b62000aeb565b985050602062000e0b8b828c0162000aff565b975050604062000e1e8b828c0162000aff565b965050606062000e318b828c0162000b71565b95505060e062000e448b828c0162000bef565b94505061014062000e588b828c0162000c6f565b9350506101a062000e6c8b828c0162000ccb565b9250506101e089013567ffffffffffffffff81111562000e8f5762000e8f600080fd5b62000e9d8b828c0162000da0565b9150509295985092959890939650565b62000a9f8162000ab5565b60208101620007e4828462000ead565b60006020828403121562000edf5762000edf600080fd5b600062000a49848462000c62565b6000620007e48262000ac7565b62000a9f8162000eed565b60208101620007e4828462000efa565b60006020828403121562000f2c5762000f2c600080fd5b600062000a49848462000aff565b6000806040838503121562000f525762000f52600080fd5b600062000f60858562000aff565b925050602062000f738582860162000aff565b9150509250929050565b8051608083019062000f90848262000a9d565b50602082015162000fa5602085018262000a9d565b50604082015162000fba604085018262000a9d565b50606082015162000862606085018262000a9d565b8051606083019062000fe2848262000a9d565b50602082015162000ff7602085018262000a9d565b50604082015162000862604085018262000a9d565b805160608301906200101f848262000ead565b50602082015162001034602085018262000ead565b50604082015162000862604085018262000ead565b805160408301906200105c848262000a9d565b50602082015162000862602085018262000ead565b60005b838110156200108e57818101518382015260200162001074565b50506000910152565b6000620010a2825190565b808452602084019350620010bb81856020860162001071565b601f01601f19169290920192915050565b6102008101620010dd828b62000efa565b620010ec602083018a62000a9d565b620010fb604083018962000a9d565b6200110a606083018862000f7d565b6200111960e083018762000fcf565b620011296101408301866200100c565b620011396101a083018562001049565b8181036101e08301526200114e818462001097565b9a9950505050505050505050565b634e487b7160e01b600052601160045260246000fd5b60008160001904831182151516156200118f576200118f6200115c565b500290565b634e487b7160e01b600052601260045260246000fd5b600082620011bc57620011bc62001194565b500490565b80820180821115620007e457620007e46200115c565b60408101620011e7828562000ead565b818103602083015262000980818462001097565b60208082527f4f776e61626c653a2063616c6c6572206973206e6f7420746865206f776e6572910190815260005b5060200190565b60208082528101620007e481620011fb565b601a81526000602082017f4e65772061646472657373206973206e6f74206120746f6b656e0000000000008152915062001229565b60208082528101620007e48162001242565b602681526000602082017f4275726e2070657263656e74206d757374206265206c657373207468616e206481526534bb34b232b960d11b602082015291505b5060400190565b60208082528101620007e48162001289565b60408101620012f1828562000a9d565b62000983602083018462000a9d565b602681526000602082017f4f776e61626c653a206e6577206f776e657220697320746865207a65726f206181526564647265737360d01b60208201529150620012c8565b60208082528101620007e48162001300565b81810381811115620007e457620007e46200115c565b606081016200137c828662000ead565b6200138b602083018562000ead565b62000a49604083018462000a9d565b80151562000adf565b8051620007e4816200139a565b600060208284031215620013c757620013c7600080fd5b600062000a498484620013a3565b602a81526000602082017f5361666545524332303a204552433230206f7065726174696f6e20646964206e8152691bdd081cdd58d8d9595960b21b60208201529150620012c8565b60208082528101620007e481620013d5565b602681526000602082017f416464726573733a20696e73756666696369656e742062616c616e636520666f8152651c8818d85b1b60d21b60208201529150620012c8565b60208082528101620007e4816200142f565b601d81526000602082017f416464726573733a2063616c6c20746f206e6f6e2d636f6e74726163740000008152915062001229565b60208082528101620007e48162001485565b6000620014d7825190565b620014e781856020860162001071565b9290920192915050565b6000620009838284620014cc565b60208082528101620007e181846200109756fe6080604052601880546001600160b01b0319167501f69aefdb0ade89bc8f8dd9712c4cc4899621e200001790553480156200003957600080fd5b5060405162002ddf38038062002ddf8339810160408190526200005c91620005c3565b62000067336200020d565b600180819055506200009487878760000151886020015189604001518a606001516200025d60201b60201c565b6200016188896001600160a01b031663313ce5676040518163ffffffff1660e01b8152600401602060405180830381865afa158015620000d8573d6000803e3d6000fd5b505050506040513d601f19601f82011682018060405250810190620000fe9190620006be565b60ff1685600280546001600160a01b039485166001600160a01b0319918216179091556003929092558051600480549185169184169190911790556020810151600580549185169184169190911790556040015160068054919093169116179055565b8151600e55602080830151600f80546001600160a01b0319166001600160a01b03909216919091179055840151845110620001b95760405162461bcd60e51b8152600401620001b09062000735565b60405180910390fd5b42846020015111620001df5760405162461bcd60e51b8152600401620001b09062000795565b835160075560208401516008556040840151600955620001ff816200027a565b505050505050505062000970565b600080546001600160a01b038381166001600160a01b0319831681178455604051919092169283917f8be0079c531659141344cd1fd0a4f28419497f9722a3daafe3b4186f6b6457e09190a35050565b601095909555601193909355600a91909155600b55600c55600d55565b6017620002888282620008a0565b5050565b60006001600160a01b0382165b92915050565b600062000299826200028c565b620002b7816200029f565b8114620002c357600080fd5b50565b80516200029981620002ac565b80620002b7565b80516200029981620002d3565b634e487b7160e01b600052604160045260246000fd5b601f19601f83011681018181106001600160401b0382111715620003255762000325620002e7565b6040525050565b60006200033860405190565b9050620003468282620002fd565b919050565b600060808284031215620003625762000362600080fd5b6200036e60806200032c565b905060006200037e8484620002da565b82525060206200039184848301620002da565b6020830152506040620003a784828501620002da565b6040830152506060620003bd84828501620002da565b60608301525092915050565b600060608284031215620003e057620003e0600080fd5b620003ec60606200032c565b90506000620003fc8484620002da565b82525060206200040f84848301620002da565b60208301525060406200042584828501620002da565b60408301525092915050565b620002b7816200028c565b8051620002998162000431565b600060608284031215620004605762000460600080fd5b6200046c60606200032c565b905060006200047c84846200043c565b82525060206200048f848483016200043c565b602083015250604062000425848285016200043c565b600060408284031215620004bc57620004bc600080fd5b620004c860406200032c565b90506000620004d88484620002da565b8252506020620004eb848483016200043c565b60208301525092915050565b60006001600160401b03821115620005135762000513620002e7565b601f19601f83011660200192915050565b60005b838110156200054157818101518382015260200162000527565b50506000910152565b6000620005616200055b84620004f7565b6200032c565b9050828152602081018484840111156200057e576200057e600080fd5b6200058b84828562000524565b509392505050565b600082601f830112620005a957620005a9600080fd5b8151620005bb8482602086016200054a565b949350505050565b600080600080600080600080610200898b031215620005e557620005e5600080fd5b6000620005f38b8b620002c6565b9850506020620006068b828c01620002da565b9750506040620006198b828c01620002da565b96505060606200062c8b828c016200034b565b95505060e06200063f8b828c01620003c9565b945050610140620006538b828c0162000449565b9350506101a0620006678b828c01620004a5565b9250506101e08901516001600160401b03811115620006895762000689600080fd5b620006978b828c0162000593565b9150509295985092959890939650565b60ff8116620002b7565b80516200029981620006a7565b600060208284031215620006d557620006d5600080fd5b6000620005bb8484620006b1565b603281526000602082017f53746172742074696d657374616d70206d757374206265206c6573732074686181527106e2066696e6973682074696d657374616d760741b602082015291505b5060400190565b602080825281016200029981620006e3565b603081526000602082017f46696e6973682074696d657374616d70206d757374206265206d6f726520746881526f616e2063757272656e7420626c6f636b60801b602082015291506200072e565b60208082528101620002998162000747565b634e487b7160e01b600052602260045260246000fd5b600281046001821680620007d257607f821691505b602082108103620007e757620007e7620007a7565b50919050565b600062000299620007fb8381565b90565b6200080983620007ed565b81546008840282811b60001990911b908116901990911617825550505050565b600062000838818484620007fe565b505050565b8181101562000288576200085360008262000829565b6001016200083d565b601f82111562000838576000818152602090206020601f85010481016020851015620008855750805b620008996020601f8601048301826200083d565b5050505050565b81516001600160401b03811115620008bc57620008bc620002e7565b620008c88254620007bd565b620008d58282856200085c565b6020601f8311600181146200090c5760008415620008f35750858201515b600019600886021c198116600286021786555062000968565b600085815260208120601f198616915b828110156200093e57888501518255602094850194600190920191016200091c565b868310156200095b5784890151600019601f89166008021c191682555b6001600288020188555050505b505050505050565b61245f80620009806000396000f3fe6080604052600436106101f95760003560e01c8063715018a61161010d578063db762bc9116100a0578063f2fde38b1161006f578063f2fde38b1461056a578063f5ae497a1461058a578063f7c618c1146105aa578063f84b903e146105d7578063fd46a171146105f157600080fd5b8063db762bc9146104f0578063ddeae03314610522578063e086e5ec14610542578063e0df5b6f1461054a57600080fd5b8063a20ecbbb116100dc578063a20ecbbb1461049b578063c1f1b1b5146104b1578063c6a0e27d146104c6578063db2e21bc146104db57600080fd5b8063715018a61461042d57806382b2e257146104425780638da5cb5b1461045757806391cca3db1461047557600080fd5b806338df7677116101905780634e71d92d1161015f5780634e71d92d146103a5578063586360ce146103ba5780635cfc1a51146103d057806362bea93f14610403578063672729991461041857600080fd5b806338df76771461032c5780633c130d90146103585780633f94d9081461037a5780634b1a4c0c1461038f57600080fd5b80632681f7e4116101cc5780632681f7e414610297578063313ce567146102d357806331711884146102e95780633675f29b146102ff57600080fd5b806312065fe0146101fe57806316ada547146102235780631959a002146102515780631b9265b81461028d575b600080fd5b34801561020a57600080fd5b50475b60405161021a9190611793565b60405180910390f35b34801561022f57600080fd5b5060075460085460095461024292919083565b60405161021a939291906117a1565b34801561025d57600080fd5b5061024261026c3660046117f9565b60196020526000908152604090208054600182015460029092015490919083565b610295610607565b005b3480156102a357600080fd5b506004546005546006546102c4926001600160a01b03908116928116911683565b60405161021a93929190611823565b3480156102df57600080fd5b5061020d60035481565b3480156102f557600080fd5b5061020d60105481565b34801561030b57600080fd5b5060135461031f906001600160a01b031681565b60405161021a919061184b565b34801561033857600080fd5b5060185461034b90610100900460ff1681565b60405161021a9190611861565b34801561036457600080fd5b5061036d6107a9565b60405161021a91906118c5565b34801561038657600080fd5b50610295610837565b34801561039b57600080fd5b5061020d60145481565b3480156103b157600080fd5b506102956108d1565b3480156103c657600080fd5b5061020d60155481565b3480156103dc57600080fd5b50600a54600b54600c54600d546103f39392919084565b60405161021a94939291906118d6565b34801561040f57600080fd5b5061020d6108dc565b34801561042457600080fd5b5061029561097b565b34801561043957600080fd5b50610295610a65565b34801561044e57600080fd5b5061020d610a99565b34801561046357600080fd5b506000546001600160a01b031661031f565b34801561048157600080fd5b5060185461031f906201000090046001600160a01b031681565b3480156104a757600080fd5b5061020d60115481565b3480156104bd57600080fd5b5061031f610b10565b3480156104d257600080fd5b50610295610b8e565b3480156104e757600080fd5b50610295610c80565b3480156104fc57600080fd5b50600e54600f5461051491906001600160a01b031682565b60405161021a929190611914565b34801561052e57600080fd5b5061029561053d3660046117f9565b610d59565b610295610d62565b34801561055657600080fd5b50610295610565366004611a2a565b61135d565b34801561057657600080fd5b506102956105853660046117f9565b611369565b34801561059657600080fd5b5060125461031f906001600160a01b031681565b3480156105b657600080fd5b506002546105ca906001600160a01b031681565b60405161021a9190611aa7565b3480156105e357600080fd5b5060185461034b9060ff1681565b3480156105fd57600080fd5b5061020d60165481565b600c543410156106325760405162461bcd60e51b815260040161062990611ae3565b60405180910390fd5b600d543411156106545760405162461bcd60e51b815260040161062990611b1e565b6007544210156106765760405162461bcd60e51b815260040161062990611b50565b60085442106106975760405162461bcd60e51b815260040161062990611b7c565b60006106a2346113c2565b600b54601654919250906106b690346113f1565b11156106d45760405162461bcd60e51b815260040161062990611bad565b336000908152601960205260409020600d5460028201546106f590346113f1565b11156107135760405162461bcd60e51b815260040161062990611b1e565b60165461072090346113f1565b60165560145461073090836113f1565b601455600281015461074290346113f1565b6002820155600181015461075690836113f1565b6001820155805461076790836113f1565b815560405133907fb55d4ca2fc644ca3f8cdc9c907826e24acd68d2b2d4d73f48b8f2378dbaedf5d9061079d9034908690611bbd565b60405180910390a25050565b601780546107b690611bee565b80601f01602080910402602001604051908101604052809291908181526020018280546107e290611bee565b801561082f5780601f106108045761010080835404028352916020019161082f565b820191906000526020600020905b81548152906001019060200180831161081257829003601f168201915b505050505081565b60085442116108585760405162461bcd60e51b815260040161062990611c43565b600a546016541061087b5760405162461bcd60e51b815260040161062990611c78565b6000546001600160a01b031633146108a55760405162461bcd60e51b815260040161062990611cba565b60006108af610a99565b905080156108ce576002546108ce906001600160a01b03163383611404565b50565b6108da3361145a565b565b6002546040516370a0823160e01b815260009182916001600160a01b03909116906370a082319061091190309060040161184b565b602060405180830381865afa15801561092e573d6000803e3d6000fd5b505050506040513d601f19601f820116820180604052508101906109529190611cdb565b905061097560145461096f601554846113f190919063ffffffff16565b9061155c565b91505090565b600854421161099c5760405162461bcd60e51b815260040161062990611c43565b600a54601654106109bf5760405162461bcd60e51b815260040161062990611c78565b33600090815260196020526040902060028101548015610a615760008083556002830181905560018301819055604051339083906109fc90611cfc565b60006040518083038185875af1925050503d8060008114610a39576040519150601f19603f3d011682016040523d82523d6000602084013e610a3e565b606091505b5050905080610a5f5760405162461bcd60e51b815260040161062990611d2e565b505b5050565b6000546001600160a01b03163314610a8f5760405162461bcd60e51b815260040161062990611cba565b6108da6000611568565b6002546040516370a0823160e01b81526000916001600160a01b0316906370a0823190610aca90309060040161184b565b602060405180830381865afa158015610ae7573d6000803e3d6000fd5b505050506040513d601f19601f82011682018060405250810190610b0b9190611cdb565b905090565b60055460025460065460405163e6a4390560e01b81526000936001600160a01b039081169363e6a4390593610b4d93918316921690600401611d3e565b602060405180830381865afa158015610b6a573d6000803e3d6000fd5b505050506040513d601f19601f82011682018060405250810190610b0b9190611d57565b6000546001600160a01b03163314610bb85760405162461bcd60e51b815260040161062990611cba565b60185460ff16610bda5760405162461bcd60e51b815260040161062990611d9e565b6002546040516370a0823160e01b81526000916001600160a01b0316906370a0823190610c0b90309060040161184b565b602060405180830381865afa158015610c28573d6000803e3d6000fd5b505050506040513d601f19601f82011682018060405250810190610c4c9190611cdb565b90506108ce33610c6d60145461096f601554866113f190919063ffffffff16565b6002546001600160a01b03169190611404565b6018546201000090046001600160a01b03163314610cb05760405162461bcd60e51b815260040161062990611dd4565b600854610cbe906000611dfa565b421015610cdd5760405162461bcd60e51b815260040161062990611e39565b6000336001600160a01b031647604051610cf690611cfc565b60006040518083038185875af1925050503d8060008114610d33576040519150601f19603f3d011682016040523d82523d6000602084013e610d38565b606091505b50509050806108ce5760405162461bcd60e51b815260040161062990611d2e565b6108ce8161145a565b6000546001600160a01b03163314610d8c5760405162461bcd60e51b815260040161062990611cba565b600a546016541015610db05760405162461bcd60e51b815260040161062990611e72565b6008544211610dd15760405162461bcd60e51b815260040161062990611c43565b60185460ff1615610df45760405162461bcd60e51b815260040161062990611eac565b600e54479015801590610e0957506000601154115b156112cf57610e183482611ebc565b905060006064600e6000015483610e2f9190611ecf565b610e399190611f04565b90506000610e478284611ebc565b90506000610e54836115b8565b6004805460025460405163095ea7b360e01b81529394506001600160a01b039182169391169163095ea7b391610e8e918591879101611f18565b6020604051808303816000875af1158015610ead573d6000803e3d6000fd5b505050506040513d601f19601f82011682018060405250810190610ed19190611f39565b50600254600090819081906001600160a01b038086169163f305d719918a911688858030610f0142610168611dfa565b6040518863ffffffff1660e01b8152600401610f2296959493929190611f6f565b60606040518083038185885af1158015610f40573d6000803e3d6000fd5b50505050506040513d601f19601f82011682018060405250810190610f659190611fbe565b60055460025460065460405163e6a4390560e01b81529598509396509194506001600160a01b039081169363e6a4390593610fa7938316921690600401611d3e565b602060405180830381865afa158015610fc4573d6000803e3d6000fd5b505050506040513d601f19601f82011682018060405250810190610fe89190611d57565b601280546001600160a01b0319166001600160a01b039290921691821790556009544210156111c657600f5460405163095ea7b360e01b81526001600160a01b038381169263095ea7b39261104592909116908690600401611f18565b6020604051808303816000875af1158015611064573d6000803e3d6000fd5b505050506040513d601f19601f820116820180604052508101906110889190611f39565b50600e60010160009054906101000a90046001600160a01b03166001600160a01b03166303f3dbac3483846001600160a01b03166395d89b416040518163ffffffff1660e01b8152600401600060405180830381865afa1580156110f0573d6000803e3d6000fd5b505050506040513d6000823e601f3d908101601f191682016040526111189190810190612066565b60405160200161112891906120c3565b60408051601f19818403018152908290526009546001600160e01b031960e087901b16835261115e9392899133916004016120ed565b60206040518083038185885af115801561117c573d6000803e3d6000fd5b50505050506040513d601f19601f820116820180604052508101906111a19190611d57565b601380546001600160a01b0319166001600160a01b0392909216919091179055611245565b60405163a9059cbb60e01b81526001600160a01b0382169063a9059cbb906111f49033908690600401611f18565b6020604051808303816000875af1158015611213573d6000803e3d6000fd5b505050506040513d601f19601f820116820180604052508101906112379190611f39565b506112423488611dfa565b96505b6000336001600160a01b03168860405161125e90611cfc565b60006040518083038185875af1925050503d806000811461129b576040519150601f19603f3d011682016040523d82523d6000602084013e6112a0565b606091505b50509050806112c15760405162461bcd60e51b815260040161062990611d2e565b50505050505050505061134d565b6000336001600160a01b0316826040516112e890611cfc565b60006040518083038185875af1925050503d8060008114611325576040519150601f19603f3d011682016040523d82523d6000602084013e61132a565b606091505b505090508061134b5760405162461bcd60e51b815260040161062990611d2e565b505b506018805460ff19166001179055565b6017610a6182826121d1565b6000546001600160a01b031633146113935760405162461bcd60e51b815260040161062990611cba565b6001600160a01b0381166113b95760405162461bcd60e51b8152600401610629906122db565b6108ce81611568565b60006113eb670de0b6b3a76400006113e5601054856115db90919063ffffffff16565b906115e7565b92915050565b60006113fd8284611dfa565b9392505050565b610a5f8363a9059cbb60e01b8484604051602401611423929190611f18565b60408051601f198184030181529190526020810180516001600160e01b03166001600160e01b0319909316929092179091526115f3565b60026001540361147c5760405162461bcd60e51b81526004016106299061231f565b600260015560085442116114a25760405162461bcd60e51b815260040161062990611c43565b600a5460165410156114c65760405162461bcd60e51b815260040161062990611e72565b6001600160a01b03811660009081526019602052604090208054801561155357600082556015546114f790826113f1565b601555600254611511906001600160a01b03168483611404565b826001600160a01b03167f6352c5382c4a4578e712449ca65e83cdb392d045dfcf1cad9615189db2da244b8260405161154a9190611793565b60405180910390a25b50506001805550565b60006113fd8284611ebc565b600080546001600160a01b038381166001600160a01b0319831681178455604051919092169283917f8be0079c531659141344cd1fd0a4f28419497f9722a3daafe3b4186f6b6457e09190a35050565b60006113eb670de0b6b3a76400006113e5601154856115db90919063ffffffff16565b60006113fd8284611ecf565b60006113fd8284611f04565b6000611648826040518060400160405280602081526020017f5361666545524332303a206c6f772d6c6576656c2063616c6c206661696c6564815250856001600160a01b03166116829092919063ffffffff16565b805190915015610a5f57808060200190518101906116669190611f39565b610a5f5760405162461bcd60e51b815260040161062990612376565b60606116918484600085611699565b949350505050565b6060824710156116bb5760405162461bcd60e51b8152600401610629906123c9565b843b6116d95760405162461bcd60e51b81526004016106299061240d565b600080866001600160a01b031685876040516116f5919061241d565b60006040518083038185875af1925050503d8060008114611732576040519150601f19603f3d011682016040523d82523d6000602084013e611737565b606091505b5091509150611747828286611752565b979650505050505050565b606083156117615750816113fd565b8251156117715782518084602001fd5b8160405162461bcd60e51b815260040161062991906118c5565b805b82525050565b602081016113eb828461178b565b606081016117af828661178b565b6117bc602083018561178b565b611691604083018461178b565b60006001600160a01b0382166113eb565b6117e3816117c9565b81146108ce57600080fd5b80356113eb816117da565b60006020828403121561180e5761180e600080fd5b600061169184846117ee565b61178d816117c9565b60608101611831828661181a565b61183e602083018561181a565b611691604083018461181a565b602081016113eb828461181a565b80151561178d565b602081016113eb8284611859565b60005b8381101561188a578181015183820152602001611872565b50506000910152565b600061189d825190565b8084526020840193506118b481856020860161186f565b601f01601f19169290920192915050565b602080825281016113fd8184611893565b608081016118e4828761178b565b6118f1602083018661178b565b6118fe604083018561178b565b61190b606083018461178b565b95945050505050565b60408101611922828561178b565b6113fd602083018461181a565b634e487b7160e01b600052604160045260246000fd5b601f19601f830116810181811067ffffffffffffffff8211171561196b5761196b61192f565b6040525050565b600061197d60405190565b90506119898282611945565b919050565b600067ffffffffffffffff8211156119a8576119a861192f565b601f19601f83011660200192915050565b82818337506000910152565b60006119d86119d38461198e565b611972565b9050828152602081018484840111156119f3576119f3600080fd5b6119fe8482856119b9565b509392505050565b600082601f830112611a1a57611a1a600080fd5b81356116918482602086016119c5565b600060208284031215611a3f57611a3f600080fd5b813567ffffffffffffffff811115611a5957611a59600080fd5b61169184828501611a06565b60006113eb6001600160a01b038316611a7c565b90565b6001600160a01b031690565b60006113eb82611a65565b60006113eb82611a88565b61178d81611a93565b602081016113eb8284611a9e565b601481526000602082017313195cdcc81d1a195b881b5a5b88185b5bdd5b9d60621b815291505b5060200190565b602080825281016113eb81611ab5565b6014815260006020820173135bdc99481d1a195b881b585e08185b5bdd5b9d60621b81529150611adc565b602080825281016113eb81611af3565b600b81526000602082016a139bdd081cdd185c9d195960aa1b81529150611adc565b602080825281016113eb81611b2e565b6005815260006020820164115b99195960da1b81529150611adc565b602080825281016113eb81611b60565b600a81526000602082016913dd995c999a5b1b195960b21b81529150611adc565b602080825281016113eb81611b8c565b60408101611bcb828561178b565b6113fd602083018461178b565b634e487b7160e01b600052602260045260246000fd5b600281046001821680611c0257607f821691505b602082108103611c1457611c14611bd8565b50919050565b6012815260006020820171092889e40d0c2e640dcdee840ccd2dcd2e6d60731b81529150611adc565b602080825281016113eb81611c1a565b600e81526000602082016d0526561636820736f6674206361760941b81529150611adc565b602080825281016113eb81611c53565b60208082527f4f776e61626c653a2063616c6c6572206973206e6f7420746865206f776e657291019081526000611adc565b602080825281016113eb81611c88565b806117e3565b80516113eb81611cca565b600060208284031215611cf057611cf0600080fd5b60006116918484611cd0565b60006113eb82611a79565b601081526000602082016f2a3930b739b332b9103330b4b632b21760811b81529150611adc565b602080825281016113eb81611d07565b60408101611922828561181a565b80516113eb816117da565b600060208284031215611d6c57611d6c600080fd5b60006116918484611d4c565b600f81526000602082016e1b9bdd08191a5cdd1c9a589d5d1959608a1b81529150611adc565b602080825281016113eb81611d78565b600f81526000602082016e2cb7ba9030b932903737ba103232bb60891b81529150611adc565b602080825281016113eb81611dae565b634e487b7160e01b600052601160045260246000fd5b808201808211156113eb576113eb611de4565b60158152600060208201744e6f74206c6f6e6720656e6f7567682074696d652160581b81529150611adc565b602080825281016113eb81611e0d565b601281526000602082017106e6f7420726561636820736f6674206361760741b81529150611adc565b602080825281016113eb81611e49565b6013815260006020820172446973747269627574656420616c726561647960681b81529150611adc565b602080825281016113eb81611e82565b818103818111156113eb576113eb611de4565b6000816000190483118215151615611ee957611ee9611de4565b500290565b634e487b7160e01b600052601260045260246000fd5b600082611f1357611f13611eee565b500490565b60408101611bcb828561181a565b8015156117e3565b80516113eb81611f26565b600060208284031215611f4e57611f4e600080fd5b60006116918484611f2e565b60006113eb611a798381565b61178d81611f5a565b60c08101611f7d828961181a565b611f8a602083018861178b565b611f976040830187611f66565b611fa46060830186611f66565b611fb1608083018561181a565b61174760a083018461178b565b600080600060608486031215611fd657611fd6600080fd5b6000611fe28686611cd0565b9350506020611ff386828701611cd0565b925050604061200486828701611cd0565b9150509250925092565b600061201c6119d38461198e565b90508281526020810184848401111561203757612037600080fd5b6119fe84828561186f565b600082601f83011261205657612056600080fd5b815161169184826020860161200e565b60006020828403121561207b5761207b600080fd5b815167ffffffffffffffff81111561209557612095600080fd5b61169184828501612042565b60006120ab825190565b6120b981856020860161186f565b9290920192915050565b60006120cf82846120a1565b6d103a37b5b2b739903637b1b5b2b960911b8152600e019392505050565b60a081016120fb8288611a9e565b818103602083015261210d8187611893565b905061211c604083018661178b565b612129606083018561181a565b612136608083018461178b565b9695505050505050565b61214983611f5a565b81546008840282811b60001990911b908116901990911617825550505050565b6000610a5f818484612140565b81811015610a6157612189600082612169565b600101612176565b601f821115610a5f576000818152602090206020601f850104810160208510156121b85750805b6121ca6020601f860104830182612176565b5050505050565b815167ffffffffffffffff8111156121eb576121eb61192f565b6121f58254611bee565b612200828285612191565b6020601f831160018114612234576000841561221c5750858201515b600019600886021c198116600286021786555061228d565b600085815260208120601f198616915b828110156122645788850151825560209485019460019092019101612244565b868310156122805784890151600019601f89166008021c191682555b6001600288020188555050505b505050505050565b602681526000602082017f4f776e61626c653a206e6577206f776e657220697320746865207a65726f206181526564647265737360d01b602082015291505b5060400190565b602080825281016113eb81612295565b601f81526000602082017f5265656e7472616e637947756172643a207265656e7472616e742063616c6c0081529150611adc565b602080825281016113eb816122eb565b602a81526000602082017f5361666545524332303a204552433230206f7065726174696f6e20646964206e8152691bdd081cdd58d8d9595960b21b602082015291506122d4565b602080825281016113eb8161232f565b602681526000602082017f416464726573733a20696e73756666696369656e742062616c616e636520666f8152651c8818d85b1b60d21b602082015291506122d4565b602080825281016113eb81612386565b601d81526000602082017f416464726573733a2063616c6c20746f206e6f6e2d636f6e747261637400000081529150611adc565b602080825281016113eb816123d9565b60006113fd82846120a156fea26469706673582212202e029b3f4d434e0a4a57e92877e30c6f12ffb6448d83bbba20cf279d2a5cd94164736f6c63430008100033a26469706673582212205cc21ad3a90af0f6b3262ea121be1be7218ded84809a718fe2498c3d9c42780164736f6c63430008100033",
  "immutableReferences": {},
  "source": "pragma solidity ^0.8.0;\n\nimport \"@openzeppelin/contracts/access/Ownable.sol\";\nimport \"@openzeppelin/contracts/utils/math/SafeMath.sol\";\nimport \"@openzeppelin/contracts/token/ERC20/utils/SafeERC20.sol\";\nimport \"@openzeppelin/contracts/token/ERC20/extensions/ERC20Burnable.sol\";\nimport \"./IDOPool.sol\";\n\ncontract IDOFactory is Ownable {\n    using SafeMath for uint256;\n    using SafeERC20 for ERC20Burnable;\n    using SafeERC20 for ERC20;\n\n    ERC20Burnable public feeToken;\n    address public feeWallet;\n    uint256 public feeAmount;\n    uint256 public burnPercent;\n    uint256 public divider;\n\n    struct  PoolInfoStruct{\n        uint256 startTimestamp;\n        uint256 finishTimestamp;\n        uint256 startClaimTimestamp;\n        uint256 lpWithdrawTimestamp;\n        uint256 minEthPayment;\n        uint256 maxEthPayment;\n        uint256 maxDistributedTokenAmount;\n    }\n\n    struct  Uniswap{\n        address FACTORY;\n        address ROUTER;\n        address WETH;\n    }\n\n    event IDOCreated(address indexed owner, address idoPool,\n        address indexed rewardToken,\n        string tokenURI\n        );\n\n    event TokenFeeUpdated(address newFeeToken);\n    event FeeAmountUpdated(uint256 newFeeAmount);\n    event BurnPercentUpdated(uint256 newBurnPercent, uint256 divider);\n    event FeeWalletUpdated(address newFeeWallet);\n\n    constructor(\n        ERC20Burnable _feeToken,\n        uint256 _feeAmount,\n        uint256 _burnPercent\n    ){\n        feeToken = _feeToken;\n        feeAmount = _feeAmount;\n        burnPercent = _burnPercent;\n        divider = 100;\n    }\n\n    function setFeeToken(address _newFeeToken) external onlyOwner {\n        require(isContract(_newFeeToken), \"New address is not a token\");\n        feeToken = ERC20Burnable(_newFeeToken);\n\n        emit TokenFeeUpdated(_newFeeToken);\n    }\n\n    function setFeeAmount(uint256 _newFeeAmount) external onlyOwner {\n        feeAmount = _newFeeAmount;\n\n        emit FeeAmountUpdated(_newFeeAmount);\n    }\n\n    function setFeeWallet(address _newFeeWallet) external onlyOwner {\n        feeWallet = _newFeeWallet;\n\n        emit FeeWalletUpdated(_newFeeWallet);\n    }\n\n    function setBurnPercent(uint256 _newBurnPercent, uint256 _newDivider)\n        external\n        onlyOwner\n    {\n        require(_newBurnPercent <= _newDivider, \"Burn percent must be less than divider\");\n        burnPercent = _newBurnPercent;\n        divider = _newDivider;\n\n        emit BurnPercentUpdated(_newBurnPercent, _newDivider);\n    }\n\n    function createIDO(\n        ERC20 _rewardToken,\n        uint256 _tokenRate,\n        uint256 _listingRate,\n        IDOPool.Capacity memory _capacity,\n        IDOPool.Time memory _time,\n        IDOPool.Uniswap memory _uniswap,\n        IDOPool.LockInfo memory _lockInfo,\n        string memory _tokenURI\n    ) external payable returns(address){\n        if(feeAmount > 0){\n            uint256 burnAmount = feeAmount.mul(burnPercent).div(divider);\n\n            feeToken.safeTransferFrom(\n                msg.sender,\n                feeWallet,\n                feeAmount.sub(burnAmount)\n            );\n            feeToken.safeTransferFrom(msg.sender, address(this), burnAmount);\n            feeToken.burn(burnAmount);\n        }\n\n        IDOPool idoPool =\n            new IDOPool(\n                _rewardToken,\n                _tokenRate,\n                _listingRate,\n                _capacity,\n                _time,\n                _uniswap,\n                _lockInfo,\n                _tokenURI\n            );\n\n        uint256 transferAmount = getTokenAmount(_capacity.hardCap, _tokenRate) + getTokenAmount(_capacity.hardCap * _lockInfo.lpPercentage / 100, _listingRate);\n\n        idoPool.transferOwnership(msg.sender);\n\n        _rewardToken.safeTransferFrom(\n            msg.sender,\n            address(idoPool),\n            transferAmount\n        );\n\n        emit IDOCreated(msg.sender,\n                        address(idoPool),\n                        address(_rewardToken),\n                        _tokenURI);\n\n        return address(idoPool);\n    }\n\n    function getTokenAmount(uint256 _ethAmount, uint256 _rate)\n        internal\n        view\n        returns (uint256)\n    {\n        return _ethAmount.mul(_rate).div(10 ** 18);\n    }\n\n    function getTokenAmount(uint256 ethAmount, uint8 decimals, uint256 price)\n        internal\n        view\n        returns (uint256)\n    {\n        return ethAmount.mul(10**decimals).div(price);\n    }\n\n    function isContract(address _addr) private view returns (bool) {\n        uint32 size;\n        assembly {\n            size := extcodesize(_addr)\n        }\n        return (size > 0);\n    }\n\n}",
  "sourcePath": "/Users/vitaliyshulik/Programming/Work/NextChain/launchpad/contracts/IDOFactory.sol",
  "compiler": {
    "name": "solc",
    "version": "0.8.16+commit.07a7930e.Emscripten.clang"
  },
  "schemaVersion": "3.4.8",
  "updatedAt": "2022-09-08T12:41:15.270Z",
  "networkType": "ethereum",
  "devdoc": {
    "kind": "dev",
    "methods": {
      "owner()": {
        "details": "Returns the address of the current owner."
      },
      "renounceOwnership()": {
        "details": "Leaves the contract without owner. It will not be possible to call `onlyOwner` functions anymore. Can only be called by the current owner. NOTE: Renouncing ownership will leave the contract without an owner, thereby removing any functionality that is only available to the owner."
      },
      "transferOwnership(address)": {
        "details": "Transfers ownership of the contract to a new account (`newOwner`). Can only be called by the current owner."
      }
    },
    "version": 1
  },
  "userdoc": {
    "kind": "user",
    "methods": {},
    "version": 1
  }
}