{
  "contractName": "IDOFactory",
  "abi": [
    {
      "inputs": [
        {
          "internalType": "contract ERC20Burnable",
          "name": "_feeToken",
          "type": "address"
        },
        {
          "internalType": "uint256",
          "name": "_feeAmount",
          "type": "uint256"
        },
        {
          "internalType": "uint256",
          "name": "_burnPercent",
          "type": "uint256"
        }
      ],
      "stateMutability": "nonpayable",
      "type": "constructor"
    },
    {
      "anonymous": false,
      "inputs": [
        {
          "indexed": false,
          "internalType": "uint256",
          "name": "newBurnPercent",
          "type": "uint256"
        },
        {
          "indexed": false,
          "internalType": "uint256",
          "name": "divider",
          "type": "uint256"
        }
      ],
      "name": "BurnPercentUpdated",
      "type": "event"
    },
    {
      "anonymous": false,
      "inputs": [
        {
          "indexed": false,
          "internalType": "uint256",
          "name": "newFeeAmount",
          "type": "uint256"
        }
      ],
      "name": "FeeAmountUpdated",
      "type": "event"
    },
    {
      "anonymous": false,
      "inputs": [
        {
          "indexed": false,
          "internalType": "address",
          "name": "newFeeWallet",
          "type": "address"
        }
      ],
      "name": "FeeWalletUpdated",
      "type": "event"
    },
    {
      "anonymous": false,
      "inputs": [
        {
          "indexed": true,
          "internalType": "address",
          "name": "owner",
          "type": "address"
        },
        {
          "indexed": false,
          "internalType": "address",
          "name": "idoPool",
          "type": "address"
        },
        {
          "indexed": true,
          "internalType": "address",
          "name": "rewardToken",
          "type": "address"
        },
        {
          "indexed": false,
          "internalType": "string",
          "name": "tokenURI",
          "type": "string"
        }
      ],
      "name": "IDOCreated",
      "type": "event"
    },
    {
      "anonymous": false,
      "inputs": [
        {
          "indexed": true,
          "internalType": "address",
          "name": "previousOwner",
          "type": "address"
        },
        {
          "indexed": true,
          "internalType": "address",
          "name": "newOwner",
          "type": "address"
        }
      ],
      "name": "OwnershipTransferred",
      "type": "event"
    },
    {
      "anonymous": false,
      "inputs": [
        {
          "indexed": false,
          "internalType": "address",
          "name": "newFeeToken",
          "type": "address"
        }
      ],
      "name": "TokenFeeUpdated",
      "type": "event"
    },
    {
      "inputs": [],
      "name": "burnPercent",
      "outputs": [
        {
          "internalType": "uint256",
          "name": "",
          "type": "uint256"
        }
      ],
      "stateMutability": "view",
      "type": "function",
      "constant": true
    },
    {
      "inputs": [],
      "name": "divider",
      "outputs": [
        {
          "internalType": "uint256",
          "name": "",
          "type": "uint256"
        }
      ],
      "stateMutability": "view",
      "type": "function",
      "constant": true
    },
    {
      "inputs": [],
      "name": "feeAmount",
      "outputs": [
        {
          "internalType": "uint256",
          "name": "",
          "type": "uint256"
        }
      ],
      "stateMutability": "view",
      "type": "function",
      "constant": true
    },
    {
      "inputs": [],
      "name": "feeToken",
      "outputs": [
        {
          "internalType": "contract ERC20Burnable",
          "name": "",
          "type": "address"
        }
      ],
      "stateMutability": "view",
      "type": "function",
      "constant": true
    },
    {
      "inputs": [],
      "name": "feeWallet",
      "outputs": [
        {
          "internalType": "address",
          "name": "",
          "type": "address"
        }
      ],
      "stateMutability": "view",
      "type": "function",
      "constant": true
    },
    {
      "inputs": [],
      "name": "owner",
      "outputs": [
        {
          "internalType": "address",
          "name": "",
          "type": "address"
        }
      ],
      "stateMutability": "view",
      "type": "function",
      "constant": true
    },
    {
      "inputs": [],
      "name": "renounceOwnership",
      "outputs": [],
      "stateMutability": "nonpayable",
      "type": "function"
    },
    {
      "inputs": [
        {
          "internalType": "address",
          "name": "newOwner",
          "type": "address"
        }
      ],
      "name": "transferOwnership",
      "outputs": [],
      "stateMutability": "nonpayable",
      "type": "function"
    },
    {
      "inputs": [
        {
          "internalType": "address",
          "name": "_newFeeToken",
          "type": "address"
        }
      ],
      "name": "setFeeToken",
      "outputs": [],
      "stateMutability": "nonpayable",
      "type": "function"
    },
    {
      "inputs": [
        {
          "internalType": "uint256",
          "name": "_newFeeAmount",
          "type": "uint256"
        }
      ],
      "name": "setFeeAmount",
      "outputs": [],
      "stateMutability": "nonpayable",
      "type": "function"
    },
    {
      "inputs": [
        {
          "internalType": "address",
          "name": "_newFeeWallet",
          "type": "address"
        }
      ],
      "name": "setFeeWallet",
      "outputs": [],
      "stateMutability": "nonpayable",
      "type": "function"
    },
    {
      "inputs": [
        {
          "internalType": "uint256",
          "name": "_newBurnPercent",
          "type": "uint256"
        },
        {
          "internalType": "uint256",
          "name": "_newDivider",
          "type": "uint256"
        }
      ],
      "name": "setBurnPercent",
      "outputs": [],
      "stateMutability": "nonpayable",
      "type": "function"
    },
    {
      "inputs": [
        {
          "internalType": "contract ERC20",
          "name": "_rewardToken",
          "type": "address"
        },
        {
          "components": [
            {
              "internalType": "uint256",
              "name": "tokenPrice",
              "type": "uint256"
            },
            {
              "internalType": "uint256",
              "name": "softCap",
              "type": "uint256"
            },
            {
              "internalType": "uint256",
              "name": "hardCap",
              "type": "uint256"
            },
            {
              "internalType": "uint256",
              "name": "minEthPayment",
              "type": "uint256"
            },
            {
              "internalType": "uint256",
              "name": "maxEthPayment",
              "type": "uint256"
            },
            {
              "internalType": "uint256",
              "name": "listingPrice",
              "type": "uint256"
            },
            {
              "internalType": "uint256",
              "name": "lpInterestRate",
              "type": "uint256"
            }
          ],
          "internalType": "struct IDOPool.FinInfo",
          "name": "_finInfo",
          "type": "tuple"
        },
        {
          "components": [
            {
              "internalType": "uint256",
              "name": "startTimestamp",
              "type": "uint256"
            },
            {
              "internalType": "uint256",
              "name": "endTimestamp",
              "type": "uint256"
            },
            {
              "internalType": "uint256",
              "name": "unlockTimestamp",
              "type": "uint256"
            }
          ],
          "internalType": "struct IDOPool.Timestamps",
          "name": "_timestamps",
          "type": "tuple"
        },
        {
          "components": [
            {
              "internalType": "address",
              "name": "router",
              "type": "address"
            },
            {
              "internalType": "address",
              "name": "factory",
              "type": "address"
            },
            {
              "internalType": "address",
              "name": "weth",
              "type": "address"
            }
          ],
          "internalType": "struct IDOPool.DEXInfo",
          "name": "_dexInfo",
          "type": "tuple"
        },
        {
          "internalType": "address",
          "name": "_lockerFactoryAddress",
          "type": "address"
        },
        {
          "internalType": "string",
          "name": "_metadataURL",
          "type": "string"
        }
      ],
      "name": "createIDO",
      "outputs": [],
      "stateMutability": "nonpayable",
      "type": "function"
    }
  ],
  "bytecode": "0x60806040523480156200001157600080fd5b50604051620041e9380380620041e983398101604081905262000034916200011c565b6200003f3362000071565b600180546001600160a01b0319166001600160a01b039490941693909317909255600355600455606460055562000174565b600080546001600160a01b038381166001600160a01b0319831681178455604051919092169283917f8be0079c531659141344cd1fd0a4f28419497f9722a3daafe3b4186f6b6457e09190a35050565b60006001600160a01b0382165b92915050565b6000620000ce82620000c1565b620000ec81620000d4565b8114620000f857600080fd5b50565b8051620000ce81620000e1565b80620000ec565b8051620000ce8162000108565b600080600060608486031215620001365762000136600080fd5b6000620001448686620000fb565b935050602062000157868287016200010f565b92505060406200016a868287016200010f565b9150509250925092565b61406580620001846000396000f3fe60806040523480156200001157600080fd5b5060043610620000e05760003560e01c80636b39268011620000975780638dc12991116200006e5780638dc1299114620001ab57806390d49b9d14620001c2578063f25f4b5614620001d9578063f2fde38b14620001ed57600080fd5b80636b392680146200016e578063715018a614620001855780638da5cb5b146200018f57600080fd5b806303807ee514620000e557806315cce224146200010757806337491a911462000120578063378efa371462000137578063647846a5146200014157806369e154041462000164575b600080fd5b620000ef60045481565b604051620000fe919062000983565b60405180910390f35b6200011e62000118366004620009c9565b62000204565b005b6200011e6200013136600462000cbb565b62000296565b620000ef60055481565b60015462000155906001600160a01b031681565b604051620000fe919062000d8d565b620000ef60035481565b6200011e6200017f36600462000d9d565b62000513565b6200011e62000554565b6000546001600160a01b03165b604051620000fe919062000dcd565b6200011e620001bc36600462000ddd565b6200056c565b6200011e620001d3366004620009c9565b620005e3565b6002546200019c906001600160a01b031681565b6200011e620001fe366004620009c9565b6200063a565b6200020e6200067b565b803b63ffffffff166200023e5760405162461bcd60e51b8152600401620002359062000e57565b60405180910390fd5b600180546001600160a01b0319166001600160a01b0383161790556040517f9e892f555b0a5cac6c8cc33c82ebb9308207bd16dfdca9d0289b96d7e4186c8a906200028b90839062000dcd565b60405180910390a150565b6000868686868686604051620002ac906200096d565b620002bd9695949392919062000fcf565b604051809103906000f080158015620002da573d6000803e3d6000fd5b50905060006200031260648860c001518960400151620002fb919062001056565b6200030791906200108e565b8860a00151620006a8565b6200032688604001518960000151620006a8565b620003329190620010a5565b60405163f2fde38b60e01b81529091506001600160a01b0383169063f2fde38b906200036390339060040162000dcd565b600060405180830381600087803b1580156200037e57600080fd5b505af115801562000393573d6000803e3d6000fd5b50620003af925050506001600160a01b038916338484620006cc565b876001600160a01b0316336001600160a01b03167ff71c11ab5bd622b01d634c5c9e59846d77ee252871f11645b7b8376ddd4dd3e28486604051620003f6929190620010bb565b60405180910390a360035415620005095760045415620004e357600062000439600554620004326004546003546200072e90919063ffffffff16565b906200073c565b600254600354919250620004749133916001600160a01b0316906200045f90856200074a565b6001546001600160a01b0316929190620006cc565b60015460405163079cc67960e41b81526001600160a01b03909116906379cc679090620004a89033908590600401620010df565b600060405180830381600087803b158015620004c357600080fd5b505af1158015620004d8573d6000803e3d6000fd5b505050505062000509565b60025460035460015462000509926001600160a01b0391821692339290911690620006cc565b5050505050505050565b6200051d6200067b565b60038190556040517fbb128cd9921d003aff00ed910fe24b1655b2bf1f4a2090cc3523f61bdc172316906200028b90839062000983565b6200055e6200067b565b6200056a600062000758565b565b620005766200067b565b80821115620005995760405162461bcd60e51b8152600401620002359062001144565b600482905560058190556040517fb62d69c6ddf4f4bd443dca17ea7405d8018efb872e82e77bb8ef13b5be2f2e9c90620005d7908490849062001156565b60405180910390a15050565b620005ed6200067b565b600280546001600160a01b0319166001600160a01b0383161790556040517f29acee77dafcfa0143d74a7ea236018f3a6e1fa71e27fc59bbfbc6b8ca8edccd906200028b90839062000dcd565b620006446200067b565b6001600160a01b0381166200066d5760405162461bcd60e51b81526004016200023590620011aa565b620006788162000758565b50565b6000546001600160a01b031633146200056a5760405162461bcd60e51b81526004016200023590620011ef565b6000620006c3670de0b6b3a76400006200043285856200072e565b90505b92915050565b62000728846323b872dd60e01b858585604051602401620006f09392919062001201565b60408051601f198184030181529190526020810180516001600160e01b03166001600160e01b031990931692909217909152620007a8565b50505050565b6000620006c3828462001056565b6000620006c382846200108e565b6000620006c382846200122f565b600080546001600160a01b038381166001600160a01b0319831681178455604051919092169283917f8be0079c531659141344cd1fd0a4f28419497f9722a3daafe3b4186f6b6457e09190a35050565b6000620007ff826040518060400160405280602081526020017f5361666545524332303a206c6f772d6c6576656c2063616c6c206661696c6564815250856001600160a01b0316620008449092919063ffffffff16565b8051909150156200083f57808060200190518101906200082091906200125b565b6200083f5760405162461bcd60e51b81526004016200023590620012c8565b505050565b60606200085584846000856200085f565b90505b9392505050565b606082471015620008845760405162461bcd60e51b815260040162000235906200131e565b6001600160a01b0385163b620008ae5760405162461bcd60e51b8152600401620002359062001365565b600080866001600160a01b03168587604051620008cc91906200139c565b60006040518083038185875af1925050503d80600081146200090b576040519150601f19603f3d011682016040523d82523d6000602084013e62000910565b606091505b5091509150620009228282866200092f565b925050505b949350505050565b606083156200094057508162000858565b825115620009515782518084602001fd5b8160405162461bcd60e51b8152600401620002359190620013aa565b612c7280620013be83390190565b805b82525050565b60208101620006c682846200097b565b60006001600160a01b038216620006c6565b620009b08162000993565b81146200067857600080fd5b8035620006c681620009a5565b600060208284031215620009e057620009e0600080fd5b6000620009278484620009bc565b6000620006c68262000993565b620009b081620009ee565b8035620006c681620009fb565b634e487b7160e01b600052604160045260246000fd5b601f19601f830116810181811067ffffffffffffffff8211171562000a525762000a5262000a13565b6040525050565b600062000a6560405190565b905062000a73828262000a29565b919050565b80620009b0565b8035620006c68162000a78565b600060e0828403121562000aa35762000aa3600080fd5b62000aaf60e062000a59565b9050600062000abf848462000a7f565b825250602062000ad28484830162000a7f565b602083015250604062000ae88482850162000a7f565b604083015250606062000afe8482850162000a7f565b606083015250608062000b148482850162000a7f565b60808301525060a062000b2a8482850162000a7f565b60a08301525060c062000b408482850162000a7f565b60c08301525092915050565b60006060828403121562000b635762000b63600080fd5b62000b6f606062000a59565b9050600062000b7f848462000a7f565b825250602062000b928484830162000a7f565b602083015250604062000ba88482850162000a7f565b60408301525092915050565b60006060828403121562000bcb5762000bcb600080fd5b62000bd7606062000a59565b9050600062000be78484620009bc565b825250602062000bfa84848301620009bc565b602083015250604062000ba884828501620009bc565b600067ffffffffffffffff82111562000c2d5762000c2d62000a13565b601f19601f83011660200192915050565b82818337506000910152565b600062000c6162000c5b8462000c10565b62000a59565b90508281526020810184848401111562000c7e5762000c7e600080fd5b62000c8b84828562000c3e565b509392505050565b600082601f83011262000ca95762000ca9600080fd5b81356200092784826020860162000c4a565b600080600080600080610200878903121562000cda5762000cda600080fd5b600062000ce8898962000a06565b965050602062000cfb89828a0162000a8c565b95505061010062000d0f89828a0162000b4c565b94505061016062000d2389828a0162000bb4565b9350506101c062000d3789828a01620009bc565b9250506101e087013567ffffffffffffffff81111562000d5a5762000d5a600080fd5b62000d6889828a0162000c93565b9150509295509295509295565b6000620006c682620009ee565b6200097d8162000d75565b60208101620006c6828462000d82565b60006020828403121562000db45762000db4600080fd5b600062000927848462000a7f565b6200097d8162000993565b60208101620006c6828462000dc2565b6000806040838503121562000df55762000df5600080fd5b600062000e03858562000a7f565b925050602062000e168582860162000a7f565b9150509250929050565b601a81526000602082017f4e65772061646472657373206973206e6f74206120746f6b656e000000000000815291505b5060200190565b60208082528101620006c68162000e20565b805160e083019062000e7c84826200097b565b50602082015162000e9160208501826200097b565b50604082015162000ea660408501826200097b565b50606082015162000ebb60608501826200097b565b50608082015162000ed060808501826200097b565b5060a082015162000ee560a08501826200097b565b5060c08201516200072860c08501826200097b565b8051606083019062000f0d84826200097b565b50602082015162000f2260208501826200097b565b5060408201516200072860408501826200097b565b8051606083019062000f4a848262000dc2565b50602082015162000f5f602085018262000dc2565b50604082015162000728604085018262000dc2565b60005b8381101562000f9157818101518382015260200162000f77565b50506000910152565b600062000fa5825190565b80845260208401935062000fbe81856020860162000f74565b601f01601f19169290920192915050565b610200810162000fe0828962000d82565b62000fef602083018862000e69565b62000fff61010083018762000efa565b6200100f61016083018662000f37565b6200101f6101c083018562000dc2565b8181036101e083015262001034818462000f9a565b98975050505050505050565b634e487b7160e01b600052601160045260246000fd5b81810280821583820485141762001071576200107162001040565b5092915050565b634e487b7160e01b600052601260045260246000fd5b600082620010a057620010a062001078565b500490565b80820180821115620006c657620006c662001040565b60408101620010cb828562000dc2565b818103602083015262000855818462000f9a565b60408101620010ef828562000dc2565b6200085860208301846200097b565b602681526000602082017f4275726e2070657263656e74206d757374206265206c657373207468616e206481526534bb34b232b960d11b602082015291505b5060400190565b60208082528101620006c681620010fe565b60408101620010ef82856200097b565b602681526000602082017f4f776e61626c653a206e6577206f776e657220697320746865207a65726f206181526564647265737360d01b602082015291506200113d565b60208082528101620006c68162001166565b60208082527f4f776e61626c653a2063616c6c6572206973206e6f7420746865206f776e65729101908152600062000e50565b60208082528101620006c681620011bc565b6060810162001211828662000dc2565b62001220602083018562000dc2565b6200092760408301846200097b565b81810381811115620006c657620006c662001040565b801515620009b0565b8051620006c68162001245565b600060208284031215620012725762001272600080fd5b60006200092784846200124e565b602a81526000602082017f5361666545524332303a204552433230206f7065726174696f6e20646964206e8152691bdd081cdd58d8d9595960b21b602082015291506200113d565b60208082528101620006c68162001280565b602681526000602082017f416464726573733a20696e73756666696369656e742062616c616e636520666f8152651c8818d85b1b60d21b602082015291506200113d565b60208082528101620006c681620012da565b601d81526000602082017f416464726573733a2063616c6c20746f206e6f6e2d636f6e74726163740000008152915062000e50565b60208082528101620006c68162001330565b600062001382825190565b6200139281856020860162000f74565b9290920192915050565b600062000858828462001377565b60208082528101620006c3818462000f9a56fe60806040526016805460ff191690553480156200001b57600080fd5b5060405162002c7238038062002c728339810160408190526200003e9162000582565b62000049336200018d565b60018055600280546001600160a01b0319166001600160a01b0388169081179091556040805163313ce56760e01b8152905163313ce567916004808201926020929091908290030181865afa158015620000a7573d6000803e3d6000fd5b505050506040513d601f19601f82011682018060405250810190620000cd919062000652565b60ff16600355601280546001600160a01b0319166001600160a01b0384161790558451600555602085015160065560408501516007556060850151600855608085015160095560a0850151600a5560c0850151600b556200012e84620001dd565b8251600f80546001600160a01b039283166001600160a01b031991821617909155602085015160108054918416918316919091179055604085015160118054919093169116179055620001818162000249565b50505050505062000904565b600080546001600160a01b038381166001600160a01b0319831681178455604051919092169283917f8be0079c531659141344cd1fd0a4f28419497f9722a3daafe3b4186f6b6457e09190a35050565b60208101518151106200020d5760405162461bcd60e51b81526004016200020490620006c9565b60405180910390fd5b42816020015111620002335760405162461bcd60e51b8152600401620002049062000729565b8051600c556020810151600d5560400151600e55565b600462000257828262000834565b5050565b60006001600160a01b0382165b92915050565b600062000268826200025b565b62000286816200026e565b81146200029257600080fd5b50565b805162000268816200027b565b634e487b7160e01b600052604160045260246000fd5b601f19601f83011681018181106001600160401b0382111715620002e057620002e0620002a2565b6040525050565b6000620002f360405190565b9050620003018282620002b8565b919050565b8062000286565b8051620002688162000306565b600060e08284031215620003315762000331600080fd5b6200033d60e0620002e7565b905060006200034d84846200030d565b825250602062000360848483016200030d565b602083015250604062000376848285016200030d565b60408301525060606200038c848285016200030d565b6060830152506080620003a2848285016200030d565b60808301525060a0620003b8848285016200030d565b60a08301525060c0620003ce848285016200030d565b60c08301525092915050565b600060608284031215620003f157620003f1600080fd5b620003fd6060620002e7565b905060006200040d84846200030d565b825250602062000420848483016200030d565b602083015250604062000436848285016200030d565b60408301525092915050565b62000286816200025b565b8051620002688162000442565b600060608284031215620004715762000471600080fd5b6200047d6060620002e7565b905060006200048d84846200044d565b8252506020620004a0848483016200044d565b602083015250604062000436848285016200044d565b60006001600160401b03821115620004d257620004d2620002a2565b601f19601f83011660200192915050565b60005b8381101562000500578181015183820152602001620004e6565b50506000910152565b6000620005206200051a84620004b6565b620002e7565b9050828152602081018484840111156200053d576200053d600080fd5b6200054a848285620004e3565b509392505050565b600082601f830112620005685762000568600080fd5b81516200057a84826020860162000509565b949350505050565b6000806000806000806102008789031215620005a157620005a1600080fd5b6000620005af898962000295565b9650506020620005c289828a016200031a565b955050610100620005d689828a01620003da565b945050610160620005ea89828a016200045a565b9350506101c0620005fe89828a016200044d565b9250506101e08701516001600160401b03811115620006205762000620600080fd5b6200062e89828a0162000552565b9150509295509295509295565b60ff811662000286565b805162000268816200063b565b600060208284031215620006695762000669600080fd5b60006200057a848462000645565b603281526000602082017f53746172742074696d657374616d70206d757374206265206c6573732074686181527106e2066696e6973682074696d657374616d760741b602082015291505b5060400190565b60208082528101620002688162000677565b603081526000602082017f46696e6973682074696d657374616d70206d757374206265206d6f726520746881526f616e2063757272656e7420626c6f636b60801b60208201529150620006c2565b602080825281016200026881620006db565b634e487b7160e01b600052602260045260246000fd5b6002810460018216806200076657607f821691505b6020821081036200077b576200077b6200073b565b50919050565b6000620002686200078f8381565b90565b6200079d8362000781565b81546008840282811b60001990911b908116901990911617825550505050565b6000620007cc81848462000792565b505050565b818110156200025757620007e7600082620007bd565b600101620007d1565b601f821115620007cc576000818152602090206020601f85010481016020851015620008195750805b6200082d6020601f860104830182620007d1565b5050505050565b81516001600160401b03811115620008505762000850620002a2565b6200085c825462000751565b62000869828285620007f0565b6020601f831160018114620008a05760008415620008875750858201515b600019600886021c1981166002860217865550620008fc565b600085815260208120601f198616915b82811015620008d25788850151825560209485019460019092019101620008b0565b86831015620008ef5784890151600019601f89166008021c191682555b6001600288020188555050505b505050505050565b61235e80620009146000396000f3fe6080604052600436106101665760003560e01c806362bea93f116100d1578063d8d2a56d1161008a578063f2fde38b11610064578063f2fde38b14610410578063f7c618c114610430578063f84b903e14610450578063fd46a1711461047757600080fd5b8063d8d2a56d146103ac578063ddeae033146103e8578063e086e5ec1461040857600080fd5b806362bea93f146103125780637100750914610327578063715018a61461033c578063747daec5146103515780638da5cb5b14610371578063c6a0e27d1461039757600080fd5b80633f138d4b116101235780633f138d4b1461027d578063491447a81461029d5780634b1a4c0c146102bc5780634e71d92d146102d2578063586360ce146102e7578063590e1ae3146102fd57600080fd5b806312d3675e1461016b5780631959a002146101b65780631b9265b8146102015780632a123b161461020b5780632dcc8c6614610238578063313ce5671461025a575b600080fd5b34801561017757600080fd5b50600554600654600754600854600954600a54600b5461019a9695949392919087565b6040516101ad97969594939291906113fd565b60405180910390f35b3480156101c257600080fd5b506101f26101d1366004611495565b60176020526000908152604090208054600182015460029092015490919083565b6040516101ad939291906114b6565b61020961048d565b005b34801561021757600080fd5b5060125461022b906001600160a01b031681565b6040516101ad9190611520565b34801561024457600080fd5b5061024d61062e565b6040516101ad9190611584565b34801561026657600080fd5b5061027060035481565b6040516101ad9190611595565b34801561028957600080fd5b506102096102983660046115b4565b6106bc565b3480156102a957600080fd5b50600c54600d54600e546101f292919083565b3480156102c857600080fd5b5061027060145481565b3480156102de57600080fd5b506102096106f7565b3480156102f357600080fd5b5061027060155481565b34801561030957600080fd5b50610209610702565b34801561031e57600080fd5b50610270610802565b34801561033357600080fd5b506102096108a1565b34801561034857600080fd5b5061020961099b565b34801561035d57600080fd5b5061020961036c3660046116ec565b6109ad565b34801561037d57600080fd5b506000546001600160a01b03166040516101ad9190611730565b3480156103a357600080fd5b506102096109b9565b3480156103b857600080fd5b50600f546010546011546103d9926001600160a01b03908116928116911683565b6040516101ad9392919061173e565b3480156103f457600080fd5b50610209610403366004611495565b610a0f565b610209610a18565b34801561041c57600080fd5b5061020961042b366004611495565b610fb2565b34801561043c57600080fd5b5060025461022b906001600160a01b031681565b34801561045c57600080fd5b5060165461046a9060ff1681565b6040516101ad919061176e565b34801561048357600080fd5b5061027060135481565b600c544210156104b85760405162461bcd60e51b81526004016104af906117a1565b60405180910390fd5b600d5442106104d95760405162461bcd60e51b81526004016104af906117cd565b6008543410156104fb5760405162461bcd60e51b81526004016104af90611808565b60095434111561051d5760405162461bcd60e51b81526004016104af90611843565b60075460135461052d9034610fe9565b111561054b5760405162461bcd60e51b81526004016104af90611874565b336000908152601760205260409020600954600282015461056c9034610fe9565b111561058a5760405162461bcd60e51b81526004016104af90611843565b600061059534610ffe565b6013549091506105a59034610fe9565b6013556014546105b59082610fe9565b60145560028201546105c79034610fe9565b600283015560018201546105db9082610fe9565b600183015581546105ec9082610fe9565b825560405133907fb55d4ca2fc644ca3f8cdc9c907826e24acd68d2b2d4d73f48b8f2378dbaedf5d906106229034908590611884565b60405180910390a25050565b6004805461063b906118b5565b80601f0160208091040260200160405190810160405280929190818152602001828054610667906118b5565b80156106b45780601f10610689576101008083540402835291602001916106b4565b820191906000526020600020905b81548152906001019060200180831161069757829003601f168201915b505050505081565b6106c4611026565b6002546001600160a01b03908116908316036106df57600080fd5b6106f36001600160a01b0383163383611050565b5050565b610700336110a6565b565b600d5442116107235760405162461bcd60e51b81526004016104af90611915565b600654601354106107465760405162461bcd60e51b81526004016104af90611957565b3360009081526017602052604090206002810154806107775760405162461bcd60e51b81526004016104af9061199b565b600080835560028301819055600183018190556040513390839061079a906119b3565b60006040518083038185875af1925050503d80600081146107d7576040519150601f19603f3d011682016040523d82523d6000602084013e6107dc565b606091505b50509050806107fd5760405162461bcd60e51b81526004016104af906119e5565b505050565b6002546040516370a0823160e01b815260009182916001600160a01b03909116906370a0823190610837903090600401611730565b602060405180830381865afa158015610854573d6000803e3d6000fd5b505050506040513d601f19601f820116820180604052508101906108789190611a00565b905061089b60145461089560155484610fe990919063ffffffff16565b906111be565b91505090565b6108a9611026565b600d5442116108ca5760405162461bcd60e51b81526004016104af90611915565b600654601354106108ed5760405162461bcd60e51b81526004016104af90611957565b6002546040516370a0823160e01b81526000916001600160a01b0316906370a082319061091e903090600401611730565b602060405180830381865afa15801561093b573d6000803e3d6000fd5b505050506040513d601f19601f8201168201806040525081019061095f9190611a00565b9050600081116109815760405162461bcd60e51b81526004016104af90611a64565b600254610998906001600160a01b03163383611050565b50565b6109a3611026565b61070060006111ca565b60046106f38282611b11565b6109c1611026565b60165460ff166109e35760405162461bcd60e51b81526004016104af90611c15565b60006109ed610802565b9050600081116109815760405162461bcd60e51b81526004016104af90611c65565b610998816110a6565b610a20611026565b600d544211610a415760405162461bcd60e51b81526004016104af90611915565b6006546013541015610a655760405162461bcd60e51b81526004016104af90611cb6565b60165460ff1615610a885760405162461bcd60e51b81526004016104af90611cf1565b600b54479015801590610a9c5750600a5415155b15610f2457610aab3482611d17565b90506000606460056006015483610ac29190611d2a565b610acc9190611d5f565b90506000610ada8284611d17565b90506000610ae78361121a565b600f5460025460405163095ea7b360e01b81529293506001600160a01b039182169291169063095ea7b390610b229084908690600401611d73565b6020604051808303816000875af1158015610b41573d6000803e3d6000fd5b505050506040513d601f19601f82011682018060405250810190610b659190611d94565b506002546000906001600160a01b038084169163f305d7199188911686858030610b9142610168611db5565b6040518863ffffffff1660e01b8152600401610bb296959493929190611dd1565b60606040518083038185885af1158015610bd0573d6000803e3d6000fd5b50505050506040513d601f19601f82011682018060405250810190610bf59190611e2b565b60105460025460115460405163e6a4390560e01b8152939650600095506001600160a01b03928316945063e6a4390593610c39939283169290911690600401611e7b565b602060405180830381865afa158015610c56573d6000803e3d6000fd5b505050506040513d601f19601f82011682018060405250810190610c7a9190611ea1565b600e549091508190421015610e1c5760125460405163095ea7b360e01b81526001600160a01b038381169263095ea7b392610cbd92909116908790600401611d73565b6020604051808303816000875af1158015610cdc573d6000803e3d6000fd5b505050506040513d601f19601f82011682018060405250810190610d009190611d94565b50601260009054906101000a90046001600160a01b03166001600160a01b03166303f3dbac3483846001600160a01b03166395d89b416040518163ffffffff1660e01b8152600401600060405180830381865afa158015610d65573d6000803e3d6000fd5b505050506040513d6000823e601f3d908101601f19168201604052610d8d9190810190611f1a565b604051602001610d9d9190611f77565b60408051601f1981840301815290829052600e546001600160e01b031960e087901b168352610dd393928a913391600401611fa1565b60206040518083038185885af1158015610df1573d6000803e3d6000fd5b50505050506040513d601f19601f82011682018060405250810190610e169190611ea1565b50610e9b565b60405163a9059cbb60e01b81526001600160a01b0382169063a9059cbb90610e4a9033908790600401611d73565b6020604051808303816000875af1158015610e69573d6000803e3d6000fd5b505050506040513d601f19601f82011682018060405250810190610e8d9190611d94565b50610e983487611db5565b95505b6000336001600160a01b031687604051610eb4906119b3565b60006040518083038185875af1925050503d8060008114610ef1576040519150601f19603f3d011682016040523d82523d6000602084013e610ef6565b606091505b5050905080610f175760405162461bcd60e51b81526004016104af906119e5565b5050505050505050610fa2565b6000336001600160a01b031682604051610f3d906119b3565b60006040518083038185875af1925050503d8060008114610f7a576040519150601f19603f3d011682016040523d82523d6000602084013e610f7f565b606091505b5050905080610fa05760405162461bcd60e51b81526004016104af906119e5565b505b506016805460ff19166001179055565b610fba611026565b6001600160a01b038116610fe05760405162461bcd60e51b81526004016104af90612037565b610998816111ca565b6000610ff58284611db5565b90505b92915050565b6000610ff8600354600a6110129190612155565b600554611020908590611238565b90611244565b6000546001600160a01b031633146107005760405162461bcd60e51b81526004016104af90612196565b6107fd8363a9059cbb60e01b848460405160240161106f929190611d73565b60408051601f198184030181529190526020810180516001600160e01b03166001600160e01b031990931692909217909152611250565b6002600154036110c85760405162461bcd60e51b81526004016104af906121da565b6002600155600d5442116110ee5760405162461bcd60e51b81526004016104af90611915565b60065460135410156111125760405162461bcd60e51b81526004016104af90611cb6565b6001600160a01b03811660009081526017602052604090208054806111495760405162461bcd60e51b81526004016104af9061221e565b6000825560155461115a9082610fe9565b601555600254611174906001600160a01b03168483611050565b826001600160a01b03167f6352c5382c4a4578e712449ca65e83cdb392d045dfcf1cad9615189db2da244b826040516111ad9190611595565b60405180910390a250506001805550565b6000610ff58284611d17565b600080546001600160a01b038381166001600160a01b0319831681178455604051919092169283917f8be0079c531659141344cd1fd0a4f28419497f9722a3daafe3b4186f6b6457e09190a35050565b6000610ff8600354600a61122e9190612155565b600a546110209085905b6000610ff58284611d2a565b6000610ff58284611d5f565b60006112a5826040518060400160405280602081526020017f5361666545524332303a206c6f772d6c6576656c2063616c6c206661696c6564815250856001600160a01b03166112df9092919063ffffffff16565b8051909150156107fd57808060200190518101906112c39190611d94565b6107fd5760405162461bcd60e51b81526004016104af90612275565b60606112ee84846000856112f8565b90505b9392505050565b60608247101561131a5760405162461bcd60e51b81526004016104af906122c8565b6001600160a01b0385163b6113415760405162461bcd60e51b81526004016104af9061230c565b600080866001600160a01b0316858760405161135d919061231c565b60006040518083038185875af1925050503d806000811461139a576040519150601f19603f3d011682016040523d82523d6000602084013e61139f565b606091505b50915091506113af8282866113bc565b925050505b949350505050565b606083156113cb5750816112f1565b8251156113db5782518084602001fd5b8160405162461bcd60e51b81526004016104af9190611584565b805b82525050565b60e0810161140b828a6113f5565b61141860208301896113f5565b61142560408301886113f5565b61143260608301876113f5565b61143f60808301866113f5565b61144c60a08301856113f5565b61145960c08301846113f5565b98975050505050505050565b60006001600160a01b038216610ff8565b61147f81611465565b811461099857600080fd5b8035610ff881611476565b6000602082840312156114aa576114aa600080fd5b60006113b4848461148a565b606081016114c482866113f5565b6114d160208301856113f5565b6113b460408301846113f5565b6000610ff86001600160a01b0383166114f5565b90565b6001600160a01b031690565b6000610ff8826114de565b6000610ff882611501565b6113f78161150c565b60208101610ff88284611517565b60005b83811015611549578181015183820152602001611531565b50506000910152565b600061155c825190565b80845260208401935061157381856020860161152e565b601f01601f19169290920192915050565b60208082528101610ff58184611552565b60208101610ff882846113f5565b8061147f565b8035610ff8816115a3565b600080604083850312156115ca576115ca600080fd5b60006115d6858561148a565b92505060206115e7858286016115a9565b9150509250929050565b634e487b7160e01b600052604160045260246000fd5b601f19601f830116810181811067ffffffffffffffff8211171561162d5761162d6115f1565b6040525050565b600061163f60405190565b905061164b8282611607565b919050565b600067ffffffffffffffff82111561166a5761166a6115f1565b601f19601f83011660200192915050565b82818337506000910152565b600061169a61169584611650565b611634565b9050828152602081018484840111156116b5576116b5600080fd5b6116c084828561167b565b509392505050565b600082601f8301126116dc576116dc600080fd5b81356113b4848260208601611687565b60006020828403121561170157611701600080fd5b813567ffffffffffffffff81111561171b5761171b600080fd5b6113b4848285016116c8565b6113f781611465565b60208101610ff88284611727565b6060810161174c8286611727565b6117596020830185611727565b6113b46040830184611727565b8015156113f7565b60208101610ff88284611766565b600b81526000602082016a139bdd081cdd185c9d195960aa1b815291505b5060200190565b60208082528101610ff88161177c565b6005815260006020820164115b99195960da1b8152915061179a565b60208082528101610ff8816117b1565b601481526000602082017313195cdcc81d1a195b881b5a5b88185b5bdd5b9d60621b8152915061179a565b60208082528101610ff8816117dd565b6014815260006020820173135bdc99481d1a195b881b585e08185b5bdd5b9d60621b8152915061179a565b60208082528101610ff881611818565b600a81526000602082016913dd995c999a5b1b195960b21b8152915061179a565b60208082528101610ff881611853565b6040810161189282856113f5565b6112f160208301846113f5565b634e487b7160e01b600052602260045260246000fd5b6002810460018216806118c957607f821691505b6020821081036118db576118db61189f565b50919050565b601b81526000602082017f5468652049444f20706f6f6c20686173206e6f7420656e6465642e00000000008152915061179a565b60208082528101610ff8816118e1565b60208082527f5468652049444f20706f6f6c2068617320726561636820736f6674206361702e9101908152600061179a565b60208082528101610ff881611925565b601781526000602082017f596f752068617665206e6f20696e766573746d656e742e0000000000000000008152915061179a565b60208082528101610ff881611967565b60008161089b565b6000610ff8826119ab565b601081526000602082016f2a3930b739b332b9103330b4b632b21760811b8152915061179a565b60208082528101610ff8816119be565b8051610ff8816115a3565b600060208284031215611a1557611a15600080fd5b60006113b484846119f5565b602381526000602082017f5468652049444f20706f6f6c20686173206e6f7420726566756e6420746f6b6581526237399760e91b602082015291505b5060400190565b60208082528101610ff881611a21565b6000610ff86114f28381565b611a8983611a74565b81546008840282811b60001990911b908116901990911617825550505050565b60006107fd818484611a80565b818110156106f357611ac9600082611aa9565b600101611ab6565b601f8211156107fd576000818152602090206020601f85010481016020851015611af85750805b611b0a6020601f860104830182611ab6565b5050505050565b815167ffffffffffffffff811115611b2b57611b2b6115f1565b611b3582546118b5565b611b40828285611ad1565b6020601f831160018114611b745760008415611b5c5750858201515b600019600886021c1981166002860217865550611bcd565b600085815260208120601f198616915b82811015611ba45788850151825560209485019460019092019101611b84565b86831015611bc05784890151600019601f89166008021c191682555b6001600288020188555050505b505050505050565b602381526000602082017f576974686472617720616c6c6f7765642061667465722064697374726962757481526232b21760e91b60208201529150611a5d565b60208082528101610ff881611bd5565b602381526000602082017f5468652049444f20706f6f6c20686173206e6f7420756e736f6c6420746f6b6581526237399760e91b60208201529150611a5d565b60208082528101610ff881611c25565b602481526000602082017f5468652049444f20706f6f6c20646964206e6f7420726561636820736f66742081526331b0b81760e11b60208201529150611a5d565b60208082528101610ff881611c75565b601481526000602082017320b63932b0b23c903234b9ba3934b13aba32b21760611b8152915061179a565b60208082528101610ff881611cc6565b634e487b7160e01b600052601160045260246000fd5b81810381811115610ff857610ff8611d01565b818102808215838204851417611d4257611d42611d01565b5092915050565b634e487b7160e01b600052601260045260246000fd5b600082611d6e57611d6e611d49565b500490565b604081016118928285611727565b80151561147f565b8051610ff881611d81565b600060208284031215611da957611da9600080fd5b60006113b48484611d89565b80820180821115610ff857610ff8611d01565b6113f781611a74565b60c08101611ddf8289611727565b611dec60208301886113f5565b611df96040830187611dc8565b611e066060830186611dc8565b611e136080830185611727565b611e2060a08301846113f5565b979650505050505050565b600080600060608486031215611e4357611e43600080fd5b6000611e4f86866119f5565b9350506020611e60868287016119f5565b9250506040611e71868287016119f5565b9150509250925092565b60408101611e898285611727565b6112f16020830184611727565b8051610ff881611476565b600060208284031215611eb657611eb6600080fd5b60006113b48484611e96565b6000611ed061169584611650565b905082815260208101848484011115611eeb57611eeb600080fd5b6116c084828561152e565b600082601f830112611f0a57611f0a600080fd5b81516113b4848260208601611ec2565b600060208284031215611f2f57611f2f600080fd5b815167ffffffffffffffff811115611f4957611f49600080fd5b6113b484828501611ef6565b6000611f5f825190565b611f6d81856020860161152e565b9290920192915050565b6000611f838284611f55565b6d103a37b5b2b739903637b1b5b2b960911b8152600e019392505050565b60a08101611faf8288611517565b8181036020830152611fc18187611552565b9050611fd060408301866113f5565b611fdd6060830185611727565b611fea60808301846113f5565b9695505050505050565b602681526000602082017f4f776e61626c653a206e6577206f776e657220697320746865207a65726f206181526564647265737360d01b60208201529150611a5d565b60208082528101610ff881611ff4565b80825b60018511156120865780860481111561206557612065611d01565b600185161561207357908102905b800261207f8560011c90565b945061204a565b94509492505050565b60008261209e575060016112f1565b816120ab575060006112f1565b81600181146120c157600281146120cb576120f8565b60019150506112f1565b60ff8411156120dc576120dc611d01565b8360020a9150848211156120f2576120f2611d01565b506112f1565b5060208310610133831016604e8410600b841016171561212b575081810a8381111561212657612126611d01565b6112f1565b6121388484846001612047565b9250905081840481111561214e5761214e611d01565b0292915050565b6000610ff5600019848461208f565b60208082527f4f776e61626c653a2063616c6c6572206973206e6f7420746865206f776e65729101908152600061179a565b60208082528101610ff881612164565b601f81526000602082017f5265656e7472616e637947756172643a207265656e7472616e742063616c6c008152915061179a565b60208082528101610ff8816121a6565b601c81526000602082017f596f7520646f206e6f742068617665206465627420746f6b656e732e000000008152915061179a565b60208082528101610ff8816121ea565b602a81526000602082017f5361666545524332303a204552433230206f7065726174696f6e20646964206e8152691bdd081cdd58d8d9595960b21b60208201529150611a5d565b60208082528101610ff88161222e565b602681526000602082017f416464726573733a20696e73756666696369656e742062616c616e636520666f8152651c8818d85b1b60d21b60208201529150611a5d565b60208082528101610ff881612285565b601d81526000602082017f416464726573733a2063616c6c20746f206e6f6e2d636f6e74726163740000008152915061179a565b60208082528101610ff8816122d8565b60006112f18284611f5556fea2646970667358221220ffcde5cd07832debc681798bdee3fbca61ebf0c711412b972a468c8082fd97b464736f6c63430008110033a26469706673582212206b1f515646203ec3dd4a14e3ef73d464d43e4a726eca8f9005be4e92c66303e364736f6c63430008110033",
  "immutableReferences": {},
  "source": "pragma solidity ^0.8.0;\n\nimport \"@openzeppelin/contracts/access/Ownable.sol\";\nimport \"@openzeppelin/contracts/utils/math/SafeMath.sol\";\nimport \"@openzeppelin/contracts/token/ERC20/utils/SafeERC20.sol\";\nimport \"@openzeppelin/contracts/token/ERC20/extensions/ERC20Burnable.sol\";\n\nimport \"./IDOPool.sol\";\n\ncontract IDOFactory is Ownable {\n    using SafeMath for uint256;\n    using SafeERC20 for ERC20Burnable;\n    using SafeERC20 for ERC20;\n\n    ERC20Burnable public feeToken;\n    address public feeWallet;\n    uint256 public feeAmount;\n    uint256 public burnPercent; // use this state only if your token is ERC20Burnable and has burnFrom method\n    uint256 public divider;\n\n    event IDOCreated(\n        address indexed owner,\n        address idoPool,\n        address indexed rewardToken,\n        string tokenURI\n    );\n\n    event TokenFeeUpdated(address newFeeToken);\n    event FeeAmountUpdated(uint256 newFeeAmount);\n    event BurnPercentUpdated(uint256 newBurnPercent, uint256 divider);\n    event FeeWalletUpdated(address newFeeWallet);\n\n    constructor(\n        ERC20Burnable _feeToken,\n        uint256 _feeAmount,\n        uint256 _burnPercent\n    ){\n        feeToken = _feeToken;\n        feeAmount = _feeAmount;\n        burnPercent = _burnPercent;\n        divider = 100;\n    }\n\n    function setFeeToken(address _newFeeToken) external onlyOwner {\n        require(isContract(_newFeeToken), \"New address is not a token\");\n        feeToken = ERC20Burnable(_newFeeToken);\n\n        emit TokenFeeUpdated(_newFeeToken);\n    }\n\n    function setFeeAmount(uint256 _newFeeAmount) external onlyOwner {\n        feeAmount = _newFeeAmount;\n\n        emit FeeAmountUpdated(_newFeeAmount);\n    }\n\n    function setFeeWallet(address _newFeeWallet) external onlyOwner {\n        feeWallet = _newFeeWallet;\n\n        emit FeeWalletUpdated(_newFeeWallet);\n    }\n\n    function setBurnPercent(uint256 _newBurnPercent, uint256 _newDivider)\n        external\n        onlyOwner\n    {\n        require(_newBurnPercent <= _newDivider, \"Burn percent must be less than divider\");\n        burnPercent = _newBurnPercent;\n        divider = _newDivider;\n\n        emit BurnPercentUpdated(_newBurnPercent, _newDivider);\n    }\n\n    function createIDO(\n        ERC20 _rewardToken,\n        IDOPool.FinInfo memory _finInfo,\n        IDOPool.Timestamps memory _timestamps,\n        IDOPool.DEXInfo memory _dexInfo,\n        address _lockerFactoryAddress,\n        string memory _metadataURL\n    ) external {\n        IDOPool idoPool =\n            new IDOPool(\n                _rewardToken,\n                _finInfo,\n                _timestamps,\n                _dexInfo,\n                _lockerFactoryAddress,\n                _metadataURL\n            );\n\n        uint256 transferAmount = getTokenAmount(_finInfo.hardCap, _finInfo.tokenPrice) + getTokenAmount(_finInfo.hardCap * _finInfo.lpInterestRate / 100, _finInfo.listingPrice);\n\n        idoPool.transferOwnership(msg.sender);\n\n        _rewardToken.safeTransferFrom(\n            msg.sender,\n            address(idoPool),\n            transferAmount\n        );\n\n        emit IDOCreated(\n            msg.sender,\n            address(idoPool),\n            address(_rewardToken),\n            _metadataURL\n        );\n\n\n        if(feeAmount > 0){\n            if (burnPercent > 0){\n                uint256 burnAmount = feeAmount.mul(burnPercent).div(divider);\n\n                feeToken.safeTransferFrom(\n                    msg.sender,\n                    feeWallet,\n                    feeAmount.sub(burnAmount)\n                );\n\n                feeToken.burnFrom(msg.sender, burnAmount);\n            } else {\n                feeToken.safeTransferFrom(\n                    msg.sender,\n                    feeWallet,\n                    feeAmount\n                );\n            }\n        }\n    }\n\n    function getTokenAmount(uint256 _ethAmount, uint256 _rate)\n        internal\n        view\n        returns (uint256)\n    {\n        return _ethAmount.mul(_rate).div(10 ** 18);\n    }\n\n    function getTokenAmount(uint256 ethAmount, uint8 decimals, uint256 price)\n        internal\n        view\n        returns (uint256)\n    {\n        return ethAmount.mul(10**decimals).div(price);\n    }\n\n    function isContract(address _addr) private view returns (bool) {\n        uint32 size;\n        assembly {\n            size := extcodesize(_addr)\n        }\n        return (size > 0);\n    }\n\n}",
  "sourcePath": "/Users/vitaliyshulik/Programming/Work/NextChain/launchpad/contracts/IDOFactory.sol",
  "compiler": {
    "name": "solc",
    "version": "0.8.17+commit.8df45f5f.Emscripten.clang"
  },
  "schemaVersion": "3.4.8",
  "updatedAt": "2022-10-21T12:58:30.781Z",
  "networkType": "ethereum",
  "devdoc": {
    "kind": "dev",
    "methods": {
      "owner()": {
        "details": "Returns the address of the current owner."
      },
      "renounceOwnership()": {
        "details": "Leaves the contract without owner. It will not be possible to call `onlyOwner` functions anymore. Can only be called by the current owner. NOTE: Renouncing ownership will leave the contract without an owner, thereby removing any functionality that is only available to the owner."
      },
      "transferOwnership(address)": {
        "details": "Transfers ownership of the contract to a new account (`newOwner`). Can only be called by the current owner."
      }
    },
    "version": 1
  },
  "userdoc": {
    "kind": "user",
    "methods": {},
    "version": 1
  }
}