{
  "contractName": "IDOPool",
  "abi": [
    {
      "inputs": [
        {
          "internalType": "contract ERC20",
          "name": "_rewardToken",
          "type": "address"
        },
        {
          "components": [
            {
              "internalType": "uint256",
              "name": "tokenPrice",
              "type": "uint256"
            },
            {
              "internalType": "uint256",
              "name": "softCap",
              "type": "uint256"
            },
            {
              "internalType": "uint256",
              "name": "hardCap",
              "type": "uint256"
            },
            {
              "internalType": "uint256",
              "name": "minEthPayment",
              "type": "uint256"
            },
            {
              "internalType": "uint256",
              "name": "maxEthPayment",
              "type": "uint256"
            },
            {
              "internalType": "uint256",
              "name": "listingPrice",
              "type": "uint256"
            },
            {
              "internalType": "uint256",
              "name": "lpInterestRate",
              "type": "uint256"
            }
          ],
          "internalType": "struct IDOPool.FinInfo",
          "name": "_finInfo",
          "type": "tuple"
        },
        {
          "components": [
            {
              "internalType": "uint256",
              "name": "startTimestamp",
              "type": "uint256"
            },
            {
              "internalType": "uint256",
              "name": "endTimestamp",
              "type": "uint256"
            },
            {
              "internalType": "uint256",
              "name": "unlockTimestamp",
              "type": "uint256"
            }
          ],
          "internalType": "struct IDOPool.Timestamps",
          "name": "_timestamps",
          "type": "tuple"
        },
        {
          "components": [
            {
              "internalType": "address",
              "name": "router",
              "type": "address"
            },
            {
              "internalType": "address",
              "name": "factory",
              "type": "address"
            },
            {
              "internalType": "address",
              "name": "weth",
              "type": "address"
            }
          ],
          "internalType": "struct IDOPool.DEXInfo",
          "name": "_dexInfo",
          "type": "tuple"
        },
        {
          "internalType": "address",
          "name": "_lockerFactoryAddress",
          "type": "address"
        },
        {
          "internalType": "string",
          "name": "_metadataURL",
          "type": "string"
        }
      ],
      "stateMutability": "nonpayable",
      "type": "constructor"
    },
    {
      "anonymous": false,
      "inputs": [
        {
          "indexed": true,
          "internalType": "address",
          "name": "previousOwner",
          "type": "address"
        },
        {
          "indexed": true,
          "internalType": "address",
          "name": "newOwner",
          "type": "address"
        }
      ],
      "name": "OwnershipTransferred",
      "type": "event"
    },
    {
      "anonymous": false,
      "inputs": [
        {
          "indexed": true,
          "internalType": "address",
          "name": "holder",
          "type": "address"
        },
        {
          "indexed": false,
          "internalType": "uint256",
          "name": "ethAmount",
          "type": "uint256"
        },
        {
          "indexed": false,
          "internalType": "uint256",
          "name": "tokenAmount",
          "type": "uint256"
        }
      ],
      "name": "TokensDebt",
      "type": "event"
    },
    {
      "anonymous": false,
      "inputs": [
        {
          "indexed": true,
          "internalType": "address",
          "name": "holder",
          "type": "address"
        },
        {
          "indexed": false,
          "internalType": "uint256",
          "name": "amount",
          "type": "uint256"
        }
      ],
      "name": "TokensWithdrawn",
      "type": "event"
    },
    {
      "inputs": [],
      "name": "decimals",
      "outputs": [
        {
          "internalType": "uint256",
          "name": "",
          "type": "uint256"
        }
      ],
      "stateMutability": "view",
      "type": "function"
    },
    {
      "inputs": [],
      "name": "dexInfo",
      "outputs": [
        {
          "internalType": "address",
          "name": "router",
          "type": "address"
        },
        {
          "internalType": "address",
          "name": "factory",
          "type": "address"
        },
        {
          "internalType": "address",
          "name": "weth",
          "type": "address"
        }
      ],
      "stateMutability": "view",
      "type": "function"
    },
    {
      "inputs": [],
      "name": "distributed",
      "outputs": [
        {
          "internalType": "bool",
          "name": "",
          "type": "bool"
        }
      ],
      "stateMutability": "view",
      "type": "function"
    },
    {
      "inputs": [],
      "name": "distributedTokens",
      "outputs": [
        {
          "internalType": "uint256",
          "name": "",
          "type": "uint256"
        }
      ],
      "stateMutability": "view",
      "type": "function"
    },
    {
      "inputs": [],
      "name": "finInfo",
      "outputs": [
        {
          "internalType": "uint256",
          "name": "tokenPrice",
          "type": "uint256"
        },
        {
          "internalType": "uint256",
          "name": "softCap",
          "type": "uint256"
        },
        {
          "internalType": "uint256",
          "name": "hardCap",
          "type": "uint256"
        },
        {
          "internalType": "uint256",
          "name": "minEthPayment",
          "type": "uint256"
        },
        {
          "internalType": "uint256",
          "name": "maxEthPayment",
          "type": "uint256"
        },
        {
          "internalType": "uint256",
          "name": "listingPrice",
          "type": "uint256"
        },
        {
          "internalType": "uint256",
          "name": "lpInterestRate",
          "type": "uint256"
        }
      ],
      "stateMutability": "view",
      "type": "function"
    },
    {
      "inputs": [],
      "name": "lockerFactory",
      "outputs": [
        {
          "internalType": "contract TokenLockerFactory",
          "name": "",
          "type": "address"
        }
      ],
      "stateMutability": "view",
      "type": "function"
    },
    {
      "inputs": [],
      "name": "metadataURL",
      "outputs": [
        {
          "internalType": "string",
          "name": "",
          "type": "string"
        }
      ],
      "stateMutability": "view",
      "type": "function"
    },
    {
      "inputs": [],
      "name": "owner",
      "outputs": [
        {
          "internalType": "address",
          "name": "",
          "type": "address"
        }
      ],
      "stateMutability": "view",
      "type": "function"
    },
    {
      "inputs": [],
      "name": "renounceOwnership",
      "outputs": [],
      "stateMutability": "nonpayable",
      "type": "function"
    },
    {
      "inputs": [],
      "name": "rewardToken",
      "outputs": [
        {
          "internalType": "contract ERC20",
          "name": "",
          "type": "address"
        }
      ],
      "stateMutability": "view",
      "type": "function"
    },
    {
      "inputs": [],
      "name": "timestamps",
      "outputs": [
        {
          "internalType": "uint256",
          "name": "startTimestamp",
          "type": "uint256"
        },
        {
          "internalType": "uint256",
          "name": "endTimestamp",
          "type": "uint256"
        },
        {
          "internalType": "uint256",
          "name": "unlockTimestamp",
          "type": "uint256"
        }
      ],
      "stateMutability": "view",
      "type": "function"
    },
    {
      "inputs": [],
      "name": "tokensForDistribution",
      "outputs": [
        {
          "internalType": "uint256",
          "name": "",
          "type": "uint256"
        }
      ],
      "stateMutability": "view",
      "type": "function"
    },
    {
      "inputs": [],
      "name": "totalInvestedETH",
      "outputs": [
        {
          "internalType": "uint256",
          "name": "",
          "type": "uint256"
        }
      ],
      "stateMutability": "view",
      "type": "function"
    },
    {
      "inputs": [
        {
          "internalType": "address",
          "name": "newOwner",
          "type": "address"
        }
      ],
      "name": "transferOwnership",
      "outputs": [],
      "stateMutability": "nonpayable",
      "type": "function"
    },
    {
      "inputs": [
        {
          "internalType": "address",
          "name": "",
          "type": "address"
        }
      ],
      "name": "userInfo",
      "outputs": [
        {
          "internalType": "uint256",
          "name": "debt",
          "type": "uint256"
        },
        {
          "internalType": "uint256",
          "name": "total",
          "type": "uint256"
        },
        {
          "internalType": "uint256",
          "name": "totalInvestedETH",
          "type": "uint256"
        }
      ],
      "stateMutability": "view",
      "type": "function"
    },
    {
      "inputs": [
        {
          "internalType": "string",
          "name": "_metadataURL",
          "type": "string"
        }
      ],
      "name": "setMetadataURL",
      "outputs": [],
      "stateMutability": "nonpayable",
      "type": "function"
    },
    {
      "inputs": [],
      "name": "pay",
      "outputs": [],
      "stateMutability": "payable",
      "type": "function"
    },
    {
      "inputs": [],
      "name": "refund",
      "outputs": [],
      "stateMutability": "nonpayable",
      "type": "function"
    },
    {
      "inputs": [
        {
          "internalType": "address",
          "name": "_user",
          "type": "address"
        }
      ],
      "name": "claimFor",
      "outputs": [],
      "stateMutability": "nonpayable",
      "type": "function"
    },
    {
      "inputs": [],
      "name": "claim",
      "outputs": [],
      "stateMutability": "nonpayable",
      "type": "function"
    },
    {
      "inputs": [],
      "name": "withdrawETH",
      "outputs": [],
      "stateMutability": "payable",
      "type": "function"
    },
    {
      "inputs": [],
      "name": "withdrawNotSoldTokens",
      "outputs": [],
      "stateMutability": "nonpayable",
      "type": "function"
    },
    {
      "inputs": [],
      "name": "getNotSoldToken",
      "outputs": [
        {
          "internalType": "uint256",
          "name": "",
          "type": "uint256"
        }
      ],
      "stateMutability": "view",
      "type": "function"
    },
    {
      "inputs": [],
      "name": "refundTokens",
      "outputs": [],
      "stateMutability": "nonpayable",
      "type": "function"
    },
    {
      "inputs": [
        {
          "internalType": "address",
          "name": "_tokenAddress",
          "type": "address"
        },
        {
          "internalType": "uint256",
          "name": "_tokenAmount",
          "type": "uint256"
        }
      ],
      "name": "recoverWrongTokens",
      "outputs": [],
      "stateMutability": "nonpayable",
      "type": "function"
    }
  ],
  "bytecode": "0x60806040526016805460ff191690553480156200001b57600080fd5b5060405162002d0b38038062002d0b8339810160408190526200003e9162000582565b62000049336200018d565b60018055600280546001600160a01b0319166001600160a01b0388169081179091556040805163313ce56760e01b8152905163313ce567916004808201926020929091908290030181865afa158015620000a7573d6000803e3d6000fd5b505050506040513d601f19601f82011682018060405250810190620000cd919062000652565b60ff16600355601280546001600160a01b0319166001600160a01b0384161790558451600555602085015160065560408501516007556060850151600855608085015160095560a0850151600a5560c0850151600b556200012e84620001dd565b8251600f80546001600160a01b039283166001600160a01b031991821617909155602085015160108054918416918316919091179055604085015160118054919093169116179055620001818162000249565b50505050505062000904565b600080546001600160a01b038381166001600160a01b0319831681178455604051919092169283917f8be0079c531659141344cd1fd0a4f28419497f9722a3daafe3b4186f6b6457e09190a35050565b60208101518151106200020d5760405162461bcd60e51b81526004016200020490620006c9565b60405180910390fd5b42816020015111620002335760405162461bcd60e51b8152600401620002049062000729565b8051600c556020810151600d5560400151600e55565b600462000257828262000834565b5050565b60006001600160a01b0382165b92915050565b600062000268826200025b565b62000286816200026e565b81146200029257600080fd5b50565b805162000268816200027b565b634e487b7160e01b600052604160045260246000fd5b601f19601f83011681018181106001600160401b0382111715620002e057620002e0620002a2565b6040525050565b6000620002f360405190565b9050620003018282620002b8565b919050565b8062000286565b8051620002688162000306565b600060e08284031215620003315762000331600080fd5b6200033d60e0620002e7565b905060006200034d84846200030d565b825250602062000360848483016200030d565b602083015250604062000376848285016200030d565b60408301525060606200038c848285016200030d565b6060830152506080620003a2848285016200030d565b60808301525060a0620003b8848285016200030d565b60a08301525060c0620003ce848285016200030d565b60c08301525092915050565b600060608284031215620003f157620003f1600080fd5b620003fd6060620002e7565b905060006200040d84846200030d565b825250602062000420848483016200030d565b602083015250604062000436848285016200030d565b60408301525092915050565b62000286816200025b565b8051620002688162000442565b600060608284031215620004715762000471600080fd5b6200047d6060620002e7565b905060006200048d84846200044d565b8252506020620004a0848483016200044d565b602083015250604062000436848285016200044d565b60006001600160401b03821115620004d257620004d2620002a2565b601f19601f83011660200192915050565b60005b8381101562000500578181015183820152602001620004e6565b50506000910152565b6000620005206200051a84620004b6565b620002e7565b9050828152602081018484840111156200053d576200053d600080fd5b6200054a848285620004e3565b509392505050565b600082601f830112620005685762000568600080fd5b81516200057a84826020860162000509565b949350505050565b6000806000806000806102008789031215620005a157620005a1600080fd5b6000620005af898962000295565b9650506020620005c289828a016200031a565b955050610100620005d689828a01620003da565b945050610160620005ea89828a016200045a565b9350506101c0620005fe89828a016200044d565b9250506101e08701516001600160401b03811115620006205762000620600080fd5b6200062e89828a0162000552565b9150509295509295509295565b60ff811662000286565b805162000268816200063b565b600060208284031215620006695762000669600080fd5b60006200057a848462000645565b603281526000602082017f53746172742074696d657374616d70206d757374206265206c6573732074686181527106e2066696e6973682074696d657374616d760741b602082015291505b5060400190565b60208082528101620002688162000677565b603081526000602082017f46696e6973682074696d657374616d70206d757374206265206d6f726520746881526f616e2063757272656e7420626c6f636b60801b60208201529150620006c2565b602080825281016200026881620006db565b634e487b7160e01b600052602260045260246000fd5b6002810460018216806200076657607f821691505b6020821081036200077b576200077b6200073b565b50919050565b6000620002686200078f8381565b90565b6200079d8362000781565b81546008840282811b60001990911b908116901990911617825550505050565b6000620007cc81848462000792565b505050565b818110156200025757620007e7600082620007bd565b600101620007d1565b601f821115620007cc576000818152602090206020601f85010481016020851015620008195750805b6200082d6020601f860104830182620007d1565b5050505050565b81516001600160401b03811115620008505762000850620002a2565b6200085c825462000751565b62000869828285620007f0565b6020601f831160018114620008a05760008415620008875750858201515b600019600886021c1981166002860217865550620008fc565b600085815260208120601f198616915b82811015620008d25788850151825560209485019460019092019101620008b0565b86831015620008ef5784890151600019601f89166008021c191682555b6001600288020188555050505b505050505050565b6123f780620009146000396000f3fe6080604052600436106101665760003560e01c806362bea93f116100d1578063d8d2a56d1161008a578063f2fde38b11610064578063f2fde38b14610410578063f7c618c114610430578063f84b903e14610450578063fd46a1711461047757600080fd5b8063d8d2a56d146103ac578063ddeae033146103e8578063e086e5ec1461040857600080fd5b806362bea93f146103125780637100750914610327578063715018a61461033c578063747daec5146103515780638da5cb5b14610371578063c6a0e27d1461039757600080fd5b80633f138d4b116101235780633f138d4b1461027d578063491447a81461029d5780634b1a4c0c146102bc5780634e71d92d146102d2578063586360ce146102e7578063590e1ae3146102fd57600080fd5b806312d3675e1461016b5780631959a002146101b65780631b9265b8146102015780632a123b161461020b5780632dcc8c6614610238578063313ce5671461025a575b600080fd5b34801561017757600080fd5b50600554600654600754600854600954600a54600b5461019a9695949392919087565b6040516101ad9796959493929190611496565b60405180910390f35b3480156101c257600080fd5b506101f26101d136600461152e565b60176020526000908152604090208054600182015460029092015490919083565b6040516101ad9392919061154f565b61020961048d565b005b34801561021757600080fd5b5060125461022b906001600160a01b031681565b6040516101ad91906115b9565b34801561024457600080fd5b5061024d61062e565b6040516101ad919061161d565b34801561026657600080fd5b5061027060035481565b6040516101ad919061162e565b34801561028957600080fd5b5061020961029836600461164d565b6106bc565b3480156102a957600080fd5b50600c54600d54600e546101f292919083565b3480156102c857600080fd5b5061027060145481565b3480156102de57600080fd5b50610209610719565b3480156102f357600080fd5b5061027060155481565b34801561030957600080fd5b50610209610724565b34801561031e57600080fd5b50610270610824565b34801561033357600080fd5b506102096108c3565b34801561034857600080fd5b506102096109df565b34801561035d57600080fd5b5061020961036c366004611785565b610a13565b34801561037d57600080fd5b506000546001600160a01b03166040516101ad91906117c9565b3480156103a357600080fd5b50610209610a1f565b3480156103b857600080fd5b50600f546010546011546103d9926001600160a01b03908116928116911683565b6040516101ad939291906117d7565b3480156103f457600080fd5b5061020961040336600461152e565b610a97565b610209610aa0565b34801561041c57600080fd5b5061020961042b36600461152e565b61105c565b34801561043c57600080fd5b5060025461022b906001600160a01b031681565b34801561045c57600080fd5b5060165461046a9060ff1681565b6040516101ad9190611807565b34801561048357600080fd5b5061027060135481565b600c544210156104b85760405162461bcd60e51b81526004016104af9061183a565b60405180910390fd5b600d5442106104d95760405162461bcd60e51b81526004016104af90611866565b6008543410156104fb5760405162461bcd60e51b81526004016104af906118a1565b60095434111561051d5760405162461bcd60e51b81526004016104af906118dc565b60075460135461052d90346110b5565b111561054b5760405162461bcd60e51b81526004016104af9061190d565b336000908152601760205260409020600954600282015461056c90346110b5565b111561058a5760405162461bcd60e51b81526004016104af906118dc565b6000610595346110ca565b6013549091506105a590346110b5565b6013556014546105b590826110b5565b60145560028201546105c790346110b5565b600283015560018201546105db90826110b5565b600183015581546105ec90826110b5565b825560405133907fb55d4ca2fc644ca3f8cdc9c907826e24acd68d2b2d4d73f48b8f2378dbaedf5d90610622903490859061191d565b60405180910390a25050565b6004805461063b9061194e565b80601f01602080910402602001604051908101604052809291908181526020018280546106679061194e565b80156106b45780601f10610689576101008083540402835291602001916106b4565b820191906000526020600020905b81548152906001019060200180831161069757829003601f168201915b505050505081565b6000546001600160a01b031633146106e65760405162461bcd60e51b81526004016104af906119ac565b6002546001600160a01b039081169083160361070157600080fd5b6107156001600160a01b03831633836110f2565b5050565b61072233611148565b565b600d5442116107455760405162461bcd60e51b81526004016104af906119f0565b600654601354106107685760405162461bcd60e51b81526004016104af90611a32565b3360009081526017602052604090206002810154806107995760405162461bcd60e51b81526004016104af90611a76565b60008083556002830181905560018301819055604051339083906107bc90611a8e565b60006040518083038185875af1925050503d80600081146107f9576040519150601f19603f3d011682016040523d82523d6000602084013e6107fe565b606091505b505090508061081f5760405162461bcd60e51b81526004016104af90611ac0565b505050565b6002546040516370a0823160e01b815260009182916001600160a01b03909116906370a08231906108599030906004016117c9565b602060405180830381865afa158015610876573d6000803e3d6000fd5b505050506040513d601f19601f8201168201806040525081019061089a9190611adb565b90506108bd6014546108b7601554846110b590919063ffffffff16565b90611260565b91505090565b6000546001600160a01b031633146108ed5760405162461bcd60e51b81526004016104af906119ac565b600d54421161090e5760405162461bcd60e51b81526004016104af906119f0565b600654601354106109315760405162461bcd60e51b81526004016104af90611a32565b6002546040516370a0823160e01b81526000916001600160a01b0316906370a08231906109629030906004016117c9565b602060405180830381865afa15801561097f573d6000803e3d6000fd5b505050506040513d601f19601f820116820180604052508101906109a39190611adb565b9050600081116109c55760405162461bcd60e51b81526004016104af90611b3f565b6002546109dc906001600160a01b031633836110f2565b50565b6000546001600160a01b03163314610a095760405162461bcd60e51b81526004016104af906119ac565b610722600061126c565b60046107158282611bec565b6000546001600160a01b03163314610a495760405162461bcd60e51b81526004016104af906119ac565b60165460ff16610a6b5760405162461bcd60e51b81526004016104af90611cf0565b6000610a75610824565b9050600081116109c55760405162461bcd60e51b81526004016104af90611d40565b6109dc81611148565b6000546001600160a01b03163314610aca5760405162461bcd60e51b81526004016104af906119ac565b600d544211610aeb5760405162461bcd60e51b81526004016104af906119f0565b6006546013541015610b0f5760405162461bcd60e51b81526004016104af90611d91565b60165460ff1615610b325760405162461bcd60e51b81526004016104af90611dcc565b600b54479015801590610b465750600a5415155b15610fce57610b553482611df2565b90506000606460056006015483610b6c9190611e05565b610b769190611e3a565b90506000610b848284611df2565b90506000610b91836112bc565b600f5460025460405163095ea7b360e01b81529293506001600160a01b039182169291169063095ea7b390610bcc9084908690600401611e4e565b6020604051808303816000875af1158015610beb573d6000803e3d6000fd5b505050506040513d601f19601f82011682018060405250810190610c0f9190611e6f565b506002546000906001600160a01b038084169163f305d7199188911686858030610c3b42610168611e90565b6040518863ffffffff1660e01b8152600401610c5c96959493929190611eac565b60606040518083038185885af1158015610c7a573d6000803e3d6000fd5b50505050506040513d601f19601f82011682018060405250810190610c9f9190611f06565b60105460025460115460405163e6a4390560e01b8152939650600095506001600160a01b03928316945063e6a4390593610ce3939283169290911690600401611f56565b602060405180830381865afa158015610d00573d6000803e3d6000fd5b505050506040513d601f19601f82011682018060405250810190610d249190611f7c565b600e549091508190421015610ec65760125460405163095ea7b360e01b81526001600160a01b038381169263095ea7b392610d6792909116908790600401611e4e565b6020604051808303816000875af1158015610d86573d6000803e3d6000fd5b505050506040513d601f19601f82011682018060405250810190610daa9190611e6f565b50601260009054906101000a90046001600160a01b03166001600160a01b03166303f3dbac3483846001600160a01b03166395d89b416040518163ffffffff1660e01b8152600401600060405180830381865afa158015610e0f573d6000803e3d6000fd5b505050506040513d6000823e601f3d908101601f19168201604052610e379190810190611ff5565b604051602001610e479190612052565b60408051601f1981840301815290829052600e546001600160e01b031960e087901b168352610e7d93928a91339160040161207c565b60206040518083038185885af1158015610e9b573d6000803e3d6000fd5b50505050506040513d601f19601f82011682018060405250810190610ec09190611f7c565b50610f45565b60405163a9059cbb60e01b81526001600160a01b0382169063a9059cbb90610ef49033908790600401611e4e565b6020604051808303816000875af1158015610f13573d6000803e3d6000fd5b505050506040513d601f19601f82011682018060405250810190610f379190611e6f565b50610f423487611e90565b95505b6000336001600160a01b031687604051610f5e90611a8e565b60006040518083038185875af1925050503d8060008114610f9b576040519150601f19603f3d011682016040523d82523d6000602084013e610fa0565b606091505b5050905080610fc15760405162461bcd60e51b81526004016104af90611ac0565b505050505050505061104c565b6000336001600160a01b031682604051610fe790611a8e565b60006040518083038185875af1925050503d8060008114611024576040519150601f19603f3d011682016040523d82523d6000602084013e611029565b606091505b505090508061104a5760405162461bcd60e51b81526004016104af90611ac0565b505b506016805460ff19166001179055565b6000546001600160a01b031633146110865760405162461bcd60e51b81526004016104af906119ac565b6001600160a01b0381166110ac5760405162461bcd60e51b81526004016104af90612112565b6109dc8161126c565b60006110c18284611e90565b90505b92915050565b60006110c4600354600a6110de9190612230565b6005546110ec9085906112da565b906112e6565b61081f8363a9059cbb60e01b8484604051602401611111929190611e4e565b60408051601f198184030181529190526020810180516001600160e01b03166001600160e01b0319909316929092179091526112f2565b60026001540361116a5760405162461bcd60e51b81526004016104af90612273565b6002600155600d5442116111905760405162461bcd60e51b81526004016104af906119f0565b60065460135410156111b45760405162461bcd60e51b81526004016104af90611d91565b6001600160a01b03811660009081526017602052604090208054806111eb5760405162461bcd60e51b81526004016104af906122b7565b600082556015546111fc90826110b5565b601555600254611216906001600160a01b031684836110f2565b826001600160a01b03167f6352c5382c4a4578e712449ca65e83cdb392d045dfcf1cad9615189db2da244b8260405161124f919061162e565b60405180910390a250506001805550565b60006110c18284611df2565b600080546001600160a01b038381166001600160a01b0319831681178455604051919092169283917f8be0079c531659141344cd1fd0a4f28419497f9722a3daafe3b4186f6b6457e09190a35050565b60006110c4600354600a6112d09190612230565b600a546110ec9085905b60006110c18284611e05565b60006110c18284611e3a565b6000611347826040518060400160405280602081526020017f5361666545524332303a206c6f772d6c6576656c2063616c6c206661696c6564815250856001600160a01b03166113819092919063ffffffff16565b80519091501561081f57808060200190518101906113659190611e6f565b61081f5760405162461bcd60e51b81526004016104af9061230e565b6060611390848460008561139a565b90505b9392505050565b6060824710156113bc5760405162461bcd60e51b81526004016104af90612361565b843b6113da5760405162461bcd60e51b81526004016104af906123a5565b600080866001600160a01b031685876040516113f691906123b5565b60006040518083038185875af1925050503d8060008114611433576040519150601f19603f3d011682016040523d82523d6000602084013e611438565b606091505b5091509150611448828286611455565b925050505b949350505050565b60608315611464575081611393565b8251156114745782518084602001fd5b8160405162461bcd60e51b81526004016104af919061161d565b805b82525050565b60e081016114a4828a61148e565b6114b1602083018961148e565b6114be604083018861148e565b6114cb606083018761148e565b6114d8608083018661148e565b6114e560a083018561148e565b6114f260c083018461148e565b98975050505050505050565b60006001600160a01b0382166110c4565b611518816114fe565b81146109dc57600080fd5b80356110c48161150f565b60006020828403121561154357611543600080fd5b600061144d8484611523565b6060810161155d828661148e565b61156a602083018561148e565b61144d604083018461148e565b60006110c46001600160a01b03831661158e565b90565b6001600160a01b031690565b60006110c482611577565b60006110c48261159a565b611490816115a5565b602081016110c482846115b0565b60005b838110156115e25781810151838201526020016115ca565b50506000910152565b60006115f5825190565b80845260208401935061160c8185602086016115c7565b601f01601f19169290920192915050565b602080825281016110c181846115eb565b602081016110c4828461148e565b80611518565b80356110c48161163c565b6000806040838503121561166357611663600080fd5b600061166f8585611523565b925050602061168085828601611642565b9150509250929050565b634e487b7160e01b600052604160045260246000fd5b601f19601f830116810181811067ffffffffffffffff821117156116c6576116c661168a565b6040525050565b60006116d860405190565b90506116e482826116a0565b919050565b600067ffffffffffffffff8211156117035761170361168a565b601f19601f83011660200192915050565b82818337506000910152565b600061173361172e846116e9565b6116cd565b90508281526020810184848401111561174e5761174e600080fd5b611759848285611714565b509392505050565b600082601f83011261177557611775600080fd5b813561144d848260208601611720565b60006020828403121561179a5761179a600080fd5b813567ffffffffffffffff8111156117b4576117b4600080fd5b61144d84828501611761565b611490816114fe565b602081016110c482846117c0565b606081016117e582866117c0565b6117f260208301856117c0565b61144d60408301846117c0565b801515611490565b602081016110c482846117ff565b600b81526000602082016a139bdd081cdd185c9d195960aa1b815291505b5060200190565b602080825281016110c481611815565b6005815260006020820164115b99195960da1b81529150611833565b602080825281016110c48161184a565b601481526000602082017313195cdcc81d1a195b881b5a5b88185b5bdd5b9d60621b81529150611833565b602080825281016110c481611876565b6014815260006020820173135bdc99481d1a195b881b585e08185b5bdd5b9d60621b81529150611833565b602080825281016110c4816118b1565b600a81526000602082016913dd995c999a5b1b195960b21b81529150611833565b602080825281016110c4816118ec565b6040810161192b828561148e565b611393602083018461148e565b634e487b7160e01b600052602260045260246000fd5b60028104600182168061196257607f821691505b60208210810361197457611974611938565b50919050565b60208082527f4f776e61626c653a2063616c6c6572206973206e6f7420746865206f776e657291019081526000611833565b602080825281016110c48161197a565b601b81526000602082017f5468652049444f20706f6f6c20686173206e6f7420656e6465642e000000000081529150611833565b602080825281016110c4816119bc565b60208082527f5468652049444f20706f6f6c2068617320726561636820736f6674206361702e91019081526000611833565b602080825281016110c481611a00565b601781526000602082017f596f752068617665206e6f20696e766573746d656e742e00000000000000000081529150611833565b602080825281016110c481611a42565b6000816108bd565b60006110c482611a86565b601081526000602082016f2a3930b739b332b9103330b4b632b21760811b81529150611833565b602080825281016110c481611a99565b80516110c48161163c565b600060208284031215611af057611af0600080fd5b600061144d8484611ad0565b602381526000602082017f5468652049444f20706f6f6c20686173206e6f7420726566756e6420746f6b6581526237399760e91b602082015291505b5060400190565b602080825281016110c481611afc565b60006110c461158b8381565b611b6483611b4f565b81546008840282811b60001990911b908116901990911617825550505050565b600061081f818484611b5b565b8181101561071557611ba4600082611b84565b600101611b91565b601f82111561081f576000818152602090206020601f85010481016020851015611bd35750805b611be56020601f860104830182611b91565b5050505050565b815167ffffffffffffffff811115611c0657611c0661168a565b611c10825461194e565b611c1b828285611bac565b6020601f831160018114611c4f5760008415611c375750858201515b600019600886021c1981166002860217865550611ca8565b600085815260208120601f198616915b82811015611c7f5788850151825560209485019460019092019101611c5f565b86831015611c9b5784890151600019601f89166008021c191682555b6001600288020188555050505b505050505050565b602381526000602082017f576974686472617720616c6c6f7765642061667465722064697374726962757481526232b21760e91b60208201529150611b38565b602080825281016110c481611cb0565b602381526000602082017f5468652049444f20706f6f6c20686173206e6f7420756e736f6c6420746f6b6581526237399760e91b60208201529150611b38565b602080825281016110c481611d00565b602481526000602082017f5468652049444f20706f6f6c20646964206e6f7420726561636820736f66742081526331b0b81760e11b60208201529150611b38565b602080825281016110c481611d50565b601481526000602082017320b63932b0b23c903234b9ba3934b13aba32b21760611b81529150611833565b602080825281016110c481611da1565b634e487b7160e01b600052601160045260246000fd5b818103818111156110c4576110c4611ddc565b818102808215838204851417611e1d57611e1d611ddc565b5092915050565b634e487b7160e01b600052601260045260246000fd5b600082611e4957611e49611e24565b500490565b6040810161192b82856117c0565b801515611518565b80516110c481611e5c565b600060208284031215611e8457611e84600080fd5b600061144d8484611e64565b808201808211156110c4576110c4611ddc565b61149081611b4f565b60c08101611eba82896117c0565b611ec7602083018861148e565b611ed46040830187611ea3565b611ee16060830186611ea3565b611eee60808301856117c0565b611efb60a083018461148e565b979650505050505050565b600080600060608486031215611f1e57611f1e600080fd5b6000611f2a8686611ad0565b9350506020611f3b86828701611ad0565b9250506040611f4c86828701611ad0565b9150509250925092565b60408101611f6482856117c0565b61139360208301846117c0565b80516110c48161150f565b600060208284031215611f9157611f91600080fd5b600061144d8484611f71565b6000611fab61172e846116e9565b905082815260208101848484011115611fc657611fc6600080fd5b6117598482856115c7565b600082601f830112611fe557611fe5600080fd5b815161144d848260208601611f9d565b60006020828403121561200a5761200a600080fd5b815167ffffffffffffffff81111561202457612024600080fd5b61144d84828501611fd1565b600061203a825190565b6120488185602086016115c7565b9290920192915050565b600061205e8284612030565b6d103a37b5b2b739903637b1b5b2b960911b8152600e019392505050565b60a0810161208a82886115b0565b818103602083015261209c81876115eb565b90506120ab604083018661148e565b6120b860608301856117c0565b6120c5608083018461148e565b9695505050505050565b602681526000602082017f4f776e61626c653a206e6577206f776e657220697320746865207a65726f206181526564647265737360d01b60208201529150611b38565b602080825281016110c4816120cf565b80825b60018511156121615780860481111561214057612140611ddc565b600185161561214e57908102905b800261215a8560011c90565b9450612125565b94509492505050565b60008261217957506001611393565b8161218657506000611393565b816001811461219c57600281146121a6576121d3565b6001915050611393565b60ff8411156121b7576121b7611ddc565b8360020a9150848211156121cd576121cd611ddc565b50611393565b5060208310610133831016604e8410600b8410161715612206575081810a8381111561220157612201611ddc565b611393565b6122138484846001612122565b9250905081840481111561222957612229611ddc565b0292915050565b60006110c1600019848461216a565b601f81526000602082017f5265656e7472616e637947756172643a207265656e7472616e742063616c6c0081529150611833565b602080825281016110c48161223f565b601c81526000602082017f596f7520646f206e6f742068617665206465627420746f6b656e732e0000000081529150611833565b602080825281016110c481612283565b602a81526000602082017f5361666545524332303a204552433230206f7065726174696f6e20646964206e8152691bdd081cdd58d8d9595960b21b60208201529150611b38565b602080825281016110c4816122c7565b602681526000602082017f416464726573733a20696e73756666696369656e742062616c616e636520666f8152651c8818d85b1b60d21b60208201529150611b38565b602080825281016110c48161231e565b601d81526000602082017f416464726573733a2063616c6c20746f206e6f6e2d636f6e747261637400000081529150611833565b602080825281016110c481612371565b6000611393828461203056fea264697066735822122060a08ef452d0b23849b1e281a0c6d46ababa2565cff857ab2837729a1d48b08c64736f6c63430008110033",
  "immutableReferences": {},
  "source": "// SPDX-License-Identifier: MIT\npragma solidity ^0.8.0;\n\nimport \"@openzeppelin/contracts/access/Ownable.sol\";\nimport \"@openzeppelin/contracts/security/ReentrancyGuard.sol\";\nimport \"@openzeppelin/contracts/utils/math/SafeMath.sol\";\nimport \"@openzeppelin/contracts/token/ERC20/utils/SafeERC20.sol\";\nimport \"@openzeppelin/contracts/token/ERC20/ERC20.sol\";\n\nimport \"./IUniswapV2Router02.sol\";\nimport \"./IUniswapV2Factory.sol\";\nimport \"./TokenLockerFactory.sol\";\n\ncontract IDOPool is Ownable, ReentrancyGuard {\n    using SafeMath for uint256;\n    using SafeERC20 for ERC20;\n\n    struct FinInfo {\n        uint256 tokenPrice;\n        uint256 softCap;\n        uint256 hardCap;\n        uint256 minEthPayment;\n        uint256 maxEthPayment;\n        uint256 listingPrice;\n        uint256 lpInterestRate;\n    }\n\n    struct Timestamps {\n        uint256 startTimestamp;\n        uint256 endTimestamp;\n        uint256 unlockTimestamp;\n    }\n\n    struct DEXInfo {\n        address router;\n        address factory;\n        address weth;\n    }\n\n    struct UserInfo {\n        uint debt;\n        uint total;\n        uint totalInvestedETH;\n    }\n\n    ERC20 public rewardToken;\n    uint256 public decimals;\n    string public metadataURL;\n\n    FinInfo public finInfo;\n    Timestamps public timestamps;\n    DEXInfo public dexInfo;\n\n    TokenLockerFactory public lockerFactory;\n\n    uint256 public totalInvestedETH;\n    uint256 public tokensForDistribution;\n    uint256 public distributedTokens;\n\n    bool public distributed = false;\n\n    mapping(address => UserInfo) public userInfo;\n\n    event TokensDebt(\n        address indexed holder,\n        uint256 ethAmount,\n        uint256 tokenAmount\n    );\n\n    event TokensWithdrawn(address indexed holder, uint256 amount);\n\n    constructor(\n        ERC20 _rewardToken,\n        FinInfo memory _finInfo,\n        Timestamps memory _timestamps,\n        DEXInfo memory _dexInfo,\n        address _lockerFactoryAddress,\n        string memory _metadataURL\n    ) {\n\n        rewardToken = _rewardToken;\n        decimals = rewardToken.decimals();\n        lockerFactory = TokenLockerFactory(_lockerFactoryAddress);\n\n        finInfo = _finInfo;\n\n        setTimestamps(_timestamps);\n\n        dexInfo = _dexInfo;\n\n        setMetadataURL(_metadataURL);\n    }\n\n    function setTimestamps(Timestamps memory _timestamps) internal {\n        require(\n            _timestamps.startTimestamp < _timestamps.endTimestamp,\n            \"Start timestamp must be less than finish timestamp\"\n        );\n        require(\n            _timestamps.endTimestamp > block.timestamp,\n            \"Finish timestamp must be more than current block\"\n        );\n\n        timestamps = _timestamps;\n    }\n\n    function setMetadataURL(string memory _metadataURL) public{\n        metadataURL = _metadataURL;\n    }\n\n    function pay() payable external {\n        require(block.timestamp >= timestamps.startTimestamp, \"Not started\");\n        require(block.timestamp < timestamps.endTimestamp, \"Ended\");\n\n        require(msg.value >= finInfo.minEthPayment, \"Less then min amount\");\n        require(msg.value <= finInfo.maxEthPayment, \"More then max amount\");\n        require(totalInvestedETH.add(msg.value) <= finInfo.hardCap, \"Overfilled\");\n\n        UserInfo storage user = userInfo[msg.sender];\n        require(user.totalInvestedETH.add(msg.value) <= finInfo.maxEthPayment, \"More then max amount\");\n\n        uint256 tokenAmount = getTokenAmount(msg.value);\n\n        totalInvestedETH = totalInvestedETH.add(msg.value);\n        tokensForDistribution = tokensForDistribution.add(tokenAmount);\n        user.totalInvestedETH = user.totalInvestedETH.add(msg.value);\n        user.total = user.total.add(tokenAmount);\n        user.debt = user.debt.add(tokenAmount);\n\n        emit TokensDebt(msg.sender, msg.value, tokenAmount);\n    }\n\n    function refund() external {\n        require(block.timestamp > timestamps.endTimestamp, \"The IDO pool has not ended.\");\n        require(totalInvestedETH < finInfo.softCap, \"The IDO pool has reach soft cap.\");\n\n        UserInfo storage user = userInfo[msg.sender];\n\n        uint256 _amount = user.totalInvestedETH;\n        require(_amount > 0 , \"You have no investment.\");\n\n        user.debt = 0;\n        user.totalInvestedETH = 0;\n        user.total = 0;\n\n        (bool success, ) = msg.sender.call{value: _amount}(\"\");\n        require(success, \"Transfer failed.\");\n\n    }\n\n    /// @dev Allows to claim tokens for the specific user.\n    /// @param _user Token receiver.\n    function claimFor(address _user) external {\n        proccessClaim(_user);\n    }\n\n    /// @dev Allows to claim tokens for themselves.\n    function claim() external {\n        proccessClaim(msg.sender);\n    }\n\n    /// @dev Proccess the claim.\n    /// @param _receiver Token receiver.\n    function proccessClaim(\n        address _receiver\n    ) internal nonReentrant{\n        require(block.timestamp > timestamps.endTimestamp, \"The IDO pool has not ended.\");\n        require(totalInvestedETH >= finInfo.softCap, \"The IDO pool did not reach soft cap.\");\n\n        UserInfo storage user = userInfo[_receiver];\n\n        uint256 _amount = user.debt;\n        require(_amount > 0 , \"You do not have debt tokens.\");\n\n        user.debt = 0;\n        distributedTokens = distributedTokens.add(_amount);\n        rewardToken.safeTransfer(_receiver, _amount);\n        emit TokensWithdrawn(_receiver,_amount);\n    }\n\n    function withdrawETH() external payable onlyOwner {\n        require(block.timestamp > timestamps.endTimestamp, \"The IDO pool has not ended.\");\n        require(totalInvestedETH >= finInfo.softCap, \"The IDO pool did not reach soft cap.\");\n        require(!distributed, \"Already distributed.\");\n\n        // This forwards all available gas. Be sure to check the return value!\n        uint256 balance = address(this).balance;\n\n        if ( finInfo.lpInterestRate > 0 && finInfo.listingPrice > 0 ) {\n            // if TokenLockerFactory has fee we should provide there fee by msg.value and sub it from balance for correct execution\n            balance -= msg.value;\n            uint256 ethForLP = (balance * finInfo.lpInterestRate)/100;\n            uint256 ethWithdraw = balance - ethForLP;\n\n            uint256 tokenAmount = getListingAmount(ethForLP);\n\n            // Add Liquidity ETH\n            IUniswapV2Router02 uniswapRouter = IUniswapV2Router02(dexInfo.router);\n            rewardToken.approve(address(uniswapRouter), tokenAmount);\n            (,, uint liquidity) = uniswapRouter.addLiquidityETH{value: ethForLP}(\n                address(rewardToken),\n                tokenAmount,\n                0, // slippage is unavoidable\n                0, // slippage is unavoidable\n                address(this),\n                block.timestamp + 360\n            );\n\n            // Lock LP Tokens\n            (address lpTokenAddress) = IUniswapV2Factory(dexInfo.factory).getPair(address(rewardToken), dexInfo.weth);\n\n            ERC20 lpToken = ERC20(lpTokenAddress);\n\n            if (timestamps.unlockTimestamp > block.timestamp) {\n                lpToken.approve(address(lockerFactory), liquidity);\n                lockerFactory.createLocker{value: msg.value}(\n                    lpToken,\n                    string.concat(lpToken.symbol(), \" tokens locker\"),\n                    liquidity, msg.sender, timestamps.unlockTimestamp\n                );\n            } else {\n                lpToken.transfer(msg.sender, liquidity);\n                // return msg.value along with eth to output if someone sent it wrong\n                ethWithdraw += msg.value;\n            }\n\n            // Withdraw rest ETH\n            (bool success, ) = msg.sender.call{value: ethWithdraw}(\"\");\n            require(success, \"Transfer failed.\");\n        } else {\n            (bool success, ) = msg.sender.call{value: balance}(\"\");\n            require(success, \"Transfer failed.\");\n        }\n\n        distributed = true;\n    }\n\n     function withdrawNotSoldTokens() external onlyOwner {\n        require(distributed, \"Withdraw allowed after distributed.\");\n\n        uint256 balance = getNotSoldToken();\n        require(balance > 0, \"The IDO pool has not unsold tokens.\");\n        rewardToken.safeTransfer(msg.sender, balance);\n    }\n\n    function getNotSoldToken() public view returns(uint256){\n        uint256 balance = rewardToken.balanceOf(address(this));\n        return balance.add(distributedTokens).sub(tokensForDistribution);\n    }\n\n    function refundTokens() external onlyOwner {\n        require(block.timestamp > timestamps.endTimestamp, \"The IDO pool has not ended.\");\n        require(totalInvestedETH < finInfo.softCap, \"The IDO pool has reach soft cap.\");\n\n        uint256 balance = rewardToken.balanceOf(address(this));\n        require(balance > 0, \"The IDO pool has not refund tokens.\");\n        rewardToken.safeTransfer(msg.sender, balance);\n    }\n\n    function getTokenAmount(uint256 ethAmount)\n        internal\n        view\n        returns (uint256)\n    {\n        return ethAmount.mul(finInfo.tokenPrice).div(10**decimals);\n    }\n\n    function getListingAmount(uint256 ethAmount)\n        internal\n        view\n        returns (uint256)\n    {\n        return ethAmount.mul(finInfo.listingPrice).div(10**decimals);\n    }\n\n    /**\n     * @notice It allows the owner to recover wrong tokens sent to the contract\n     * @param _tokenAddress: the address of the token to withdraw with the exception of rewardToken\n     * @param _tokenAmount: the number of token amount to withdraw\n     * @dev Only callable by owner.\n     */\n    function recoverWrongTokens(address _tokenAddress, uint256 _tokenAmount) external onlyOwner {\n        require(_tokenAddress != address(rewardToken));\n        ERC20(_tokenAddress).safeTransfer(address(msg.sender), _tokenAmount);\n    }\n}",
  "sourcePath": "/Users/vitaliyshulik/Programming/Work/NextChain/launchpad/contracts/IDOPool.sol",
  "compiler": {
    "name": "solc",
    "version": "0.8.17+commit.8df45f5f.Emscripten.clang"
  },
  "schemaVersion": "3.4.8",
  "updatedAt": "2022-09-23T10:42:28.941Z",
  "devdoc": {
    "kind": "dev",
    "methods": {
      "claim()": {
        "details": "Allows to claim tokens for themselves."
      },
      "claimFor(address)": {
        "details": "Allows to claim tokens for the specific user.",
        "params": {
          "_user": "Token receiver."
        }
      },
      "owner()": {
        "details": "Returns the address of the current owner."
      },
      "recoverWrongTokens(address,uint256)": {
        "details": "Only callable by owner.",
        "params": {
          "_tokenAddress": ": the address of the token to withdraw with the exception of rewardToken",
          "_tokenAmount": ": the number of token amount to withdraw"
        }
      },
      "renounceOwnership()": {
        "details": "Leaves the contract without owner. It will not be possible to call `onlyOwner` functions anymore. Can only be called by the current owner. NOTE: Renouncing ownership will leave the contract without an owner, thereby removing any functionality that is only available to the owner."
      },
      "transferOwnership(address)": {
        "details": "Transfers ownership of the contract to a new account (`newOwner`). Can only be called by the current owner."
      }
    },
    "version": 1
  },
  "userdoc": {
    "kind": "user",
    "methods": {
      "recoverWrongTokens(address,uint256)": {
        "notice": "It allows the owner to recover wrong tokens sent to the contract"
      }
    },
    "version": 1
  }
}