{
  "contractName": "TokenLockerFactory",
  "abi": [
    {
      "inputs": [],
      "stateMutability": "nonpayable",
      "type": "constructor"
    },
    {
      "anonymous": false,
      "inputs": [
        {
          "indexed": false,
          "internalType": "uint256",
          "name": "lockerId",
          "type": "uint256"
        },
        {
          "indexed": true,
          "internalType": "address",
          "name": "lockerAddress",
          "type": "address"
        },
        {
          "indexed": false,
          "internalType": "address",
          "name": "tokenAddress",
          "type": "address"
        }
      ],
      "name": "LockerCreated",
      "type": "event"
    },
    {
      "anonymous": false,
      "inputs": [
        {
          "indexed": true,
          "internalType": "address",
          "name": "previousOwner",
          "type": "address"
        },
        {
          "indexed": true,
          "internalType": "address",
          "name": "newOwner",
          "type": "address"
        }
      ],
      "name": "OwnershipTransferred",
      "type": "event"
    },
    {
      "inputs": [],
      "name": "fee",
      "outputs": [
        {
          "internalType": "uint256",
          "name": "",
          "type": "uint256"
        }
      ],
      "stateMutability": "view",
      "type": "function"
    },
    {
      "inputs": [],
      "name": "lockerCount",
      "outputs": [
        {
          "internalType": "uint256",
          "name": "",
          "type": "uint256"
        }
      ],
      "stateMutability": "view",
      "type": "function"
    },
    {
      "inputs": [],
      "name": "owner",
      "outputs": [
        {
          "internalType": "address",
          "name": "",
          "type": "address"
        }
      ],
      "stateMutability": "view",
      "type": "function"
    },
    {
      "inputs": [],
      "name": "renounceOwnership",
      "outputs": [],
      "stateMutability": "nonpayable",
      "type": "function"
    },
    {
      "inputs": [
        {
          "internalType": "address",
          "name": "newOwner",
          "type": "address"
        }
      ],
      "name": "transferOwnership",
      "outputs": [],
      "stateMutability": "nonpayable",
      "type": "function"
    },
    {
      "inputs": [
        {
          "internalType": "contract ERC20",
          "name": "_tokenAddress",
          "type": "address"
        },
        {
          "internalType": "string",
          "name": "_name",
          "type": "string"
        },
        {
          "internalType": "uint256",
          "name": "_lockAmount",
          "type": "uint256"
        },
        {
          "internalType": "address",
          "name": "_withdrawer",
          "type": "address"
        },
        {
          "internalType": "uint256",
          "name": "_withdrawTime",
          "type": "uint256"
        }
      ],
      "name": "createLocker",
      "outputs": [
        {
          "internalType": "address",
          "name": "",
          "type": "address"
        }
      ],
      "stateMutability": "payable",
      "type": "function"
    },
    {
      "inputs": [],
      "name": "withdrawFee",
      "outputs": [],
      "stateMutability": "nonpayable",
      "type": "function"
    },
    {
      "inputs": [
        {
          "internalType": "uint256",
          "name": "amount",
          "type": "uint256"
        }
      ],
      "name": "setFee",
      "outputs": [],
      "stateMutability": "nonpayable",
      "type": "function"
    }
  ],
  "bytecode": "0x60806040526000600155600060025534801561001a57600080fd5b5061002433610029565b610079565b600080546001600160a01b038381166001600160a01b0319831681178455604051919092169283917f8be0079c531659141344cd1fd0a4f28419497f9722a3daafe3b4186f6b6457e09190a35050565b611c33806100886000396000f3fe608060405260043610620000855760003560e01c8063ccd96eb61162000054578063ccd96eb61462000118578063ddca3f43146200013f578063e941fa781462000157578063f2fde38b146200016f57600080fd5b806303f3dbac146200008a57806369fe0e2d14620000b9578063715018a614620000e05780638da5cb5b14620000f8575b600080fd5b620000a16200009b36600462000824565b62000194565b604051620000b09190620008d6565b60405180910390f35b348015620000c657600080fd5b50620000de620000d8366004620008e6565b620002ec565b005b348015620000ed57600080fd5b50620000de620002fb565b3480156200010557600080fd5b506000546001600160a01b0316620000a1565b3480156200012557600080fd5b506200013060015481565b604051620000b0919062000912565b3480156200014c57600080fd5b506200013060025481565b3480156200016457600080fd5b50620000de62000313565b3480156200017c57600080fd5b50620000de6200018e36600462000922565b620003a3565b60006002543414620001c35760405162461bcd60e51b8152600401620001ba9062000977565b60405180910390fd5b600086868585604051620001d79062000696565b620001e6949392919062000a1b565b604051809103906000f08015801562000203573d6000803e3d6000fd5b5060405163f2fde38b60e01b81529091506001600160a01b0382169063f2fde38b9062000235903390600401620008d6565b600060405180830381600087803b1580156200025057600080fd5b505af115801562000265573d6000803e3d6000fd5b5062000281925050506001600160a01b038816338388620003e1565b806001600160a01b03167f4fd7b129e67605fe15d5e55ba0e969876d1549f11dc6aa106a702d51b27f5f4d60015489604051620002c092919062000a5f565b60405180910390a260018054906000620002da8362000a94565b90915550909150505b95945050505050565b620002f662000443565b600255565b6200030562000443565b62000311600062000470565b565b6200031d62000443565b6000336001600160a01b031647604051620003389062000ab1565b60006040518083038185875af1925050503d806000811462000377576040519150601f19603f3d011682016040523d82523d6000602084013e6200037c565b606091505b5050905080620003a05760405162461bcd60e51b8152600401620001ba9062000ae2565b50565b620003ad62000443565b6001600160a01b038116620003d65760405162461bcd60e51b8152600401620001ba9062000b3a565b620003a08162000470565b6200043d846323b872dd60e01b858585604051602401620004059392919062000b4c565b60408051601f198184030181529190526020810180516001600160e01b03166001600160e01b031990931692909217909152620004c0565b50505050565b6000546001600160a01b03163314620003115760405162461bcd60e51b8152600401620001ba9062000bad565b600080546001600160a01b038381166001600160a01b0319831681178455604051919092169283917f8be0079c531659141344cd1fd0a4f28419497f9722a3daafe3b4186f6b6457e09190a35050565b600062000517826040518060400160405280602081526020017f5361666545524332303a206c6f772d6c6576656c2063616c6c206661696c6564815250856001600160a01b03166200055c9092919063ffffffff16565b80519091501562000557578080602001905181019062000538919062000bd5565b620005575760405162461bcd60e51b8152600401620001ba9062000c42565b505050565b60606200056d848460008562000577565b90505b9392505050565b6060824710156200059c5760405162461bcd60e51b8152600401620001ba9062000c98565b600080866001600160a01b03168587604051620005ba919062000ccf565b60006040518083038185875af1925050503d8060008114620005f9576040519150601f19603f3d011682016040523d82523d6000602084013e620005fe565b606091505b509150915062000611878383876200061e565b925050505b949350505050565b60608315620006635782516000036200065b576001600160a01b0385163b6200065b5760405162461bcd60e51b8152600401620001ba9062000d12565b508162000616565b6200061683838151156200067a5781518083602001fd5b8060405162461bcd60e51b8152600401620001ba919062000d24565b610ec68062000d3883390190565b60006001600160a01b0382165b92915050565b6000620006b182620006a4565b620006cf81620006b7565b8114620003a057600080fd5b8035620006b181620006c4565b634e487b7160e01b600052604160045260246000fd5b601f19601f830116810181811067ffffffffffffffff82111715620007275762000727620006e8565b6040525050565b60006200073a60405190565b9050620007488282620006fe565b919050565b600067ffffffffffffffff8211156200076a576200076a620006e8565b601f19601f83011660200192915050565b82818337506000910152565b60006200079e62000798846200074d565b6200072e565b905082815260208101848484011115620007bb57620007bb600080fd5b620007c88482856200077b565b509392505050565b600082601f830112620007e657620007e6600080fd5b81356200061684826020860162000787565b80620006cf565b8035620006b181620007f8565b620006cf81620006a4565b8035620006b1816200080c565b600080600080600060a08688031215620008415762000841600080fd5b60006200084f8888620006db565b955050602086013567ffffffffffffffff811115620008715762000871600080fd5b6200087f88828901620007d0565b94505060406200089288828901620007ff565b9350506060620008a58882890162000817565b9250506080620008b888828901620007ff565b9150509295509295909350565b620008d081620006a4565b82525050565b60208101620006b18284620008c5565b600060208284031215620008fd57620008fd600080fd5b6000620006168484620007ff565b80620008d0565b60208101620006b182846200090b565b600060208284031215620009395762000939600080fd5b600062000616848462000817565b601681526000602082017511995948185b5bdd5b9d081a5cc81c995c5d5a5c995960521b815291505b5060200190565b60208082528101620006b18162000947565b60006001600160a01b038216620006b1565b6000620006b18262000989565b6000620006b1826200099b565b620008d081620009a8565b60005b83811015620009dd578181015183820152602001620009c3565b50506000910152565b6000620009f1825190565b80845260208401935062000a0a818560208601620009c0565b601f01601f19169290920192915050565b6080810162000a2b8287620009b5565b818103602083015262000a3f8186620009e6565b905062000a506040830185620008c5565b620002e360608301846200090b565b6040810162000a6f82856200090b565b620005706020830184620008c5565b634e487b7160e01b600052601160045260246000fd5b6000600019820362000aaa5762000aaa62000a7e565b5060010190565b600081620006b1565b601081526000602082016f2a3930b739b332b9103330b4b632b21760811b8152915062000970565b60208082528101620006b18162000aba565b602681526000602082017f4f776e61626c653a206e6577206f776e657220697320746865207a65726f206181526564647265737360d01b602082015291505b5060400190565b60208082528101620006b18162000af4565b6060810162000b5c8286620008c5565b62000b6b6020830185620008c5565b6200061660408301846200090b565b60208082527f4f776e61626c653a2063616c6c6572206973206e6f7420746865206f776e65729101908152600062000970565b60208082528101620006b18162000b7a565b801515620006cf565b8051620006b18162000bbf565b60006020828403121562000bec5762000bec600080fd5b600062000616848462000bc8565b602a81526000602082017f5361666545524332303a204552433230206f7065726174696f6e20646964206e8152691bdd081cdd58d8d9595960b21b6020820152915062000b33565b60208082528101620006b18162000bfa565b602681526000602082017f416464726573733a20696e73756666696369656e742062616c616e636520666f8152651c8818d85b1b60d21b6020820152915062000b33565b60208082528101620006b18162000c54565b600062000cb5825190565b62000cc5818560208601620009c0565b9290920192915050565b600062000570828462000caa565b601d81526000602082017f416464726573733a2063616c6c20746f206e6f6e2d636f6e74726163740000008152915062000970565b60208082528101620006b18162000cdd565b60208082528101620005708184620009e656fe60806040523480156200001157600080fd5b5060405162000ec638038062000ec68339810160408190526200003491620002b4565b6200003f33620000c1565b4281116200006a5760405162461bcd60e51b815260040162000061906200033e565b60405180910390fd5b600180546001600160a01b0319166001600160a01b038616179055600462000093848262000480565b50600280546001600160a01b0319166001600160a01b03939093169290921790915560035550620005509050565b600080546001600160a01b038381166001600160a01b0319831681178455604051919092169283917f8be0079c531659141344cd1fd0a4f28419497f9722a3daafe3b4186f6b6457e09190a35050565b60006001600160a01b0382165b92915050565b60006200011e8262000111565b6200013c8162000124565b81146200014857600080fd5b50565b80516200011e8162000131565b634e487b7160e01b600052604160045260246000fd5b601f19601f83011681018181106001600160401b038211171562000196576200019662000158565b6040525050565b6000620001a960405190565b9050620001b782826200016e565b919050565b60006001600160401b03821115620001d857620001d862000158565b601f19601f83011660200192915050565b60005b8381101562000206578181015183820152602001620001ec565b50506000910152565b6000620002266200022084620001bc565b6200019d565b905082815260208101848484011115620002435762000243600080fd5b62000250848285620001e9565b509392505050565b600082601f8301126200026e576200026e600080fd5b8151620002808482602086016200020f565b949350505050565b6200013c8162000111565b80516200011e8162000288565b806200013c565b80516200011e81620002a0565b60008060008060808587031215620002cf57620002cf600080fd5b6000620002dd87876200014b565b94505060208501516001600160401b03811115620002fe57620002fe600080fd5b6200030c8782880162000258565b93505060406200031f8782880162000293565b92505060606200033287828801620002a7565b91505092959194509250565b602080825281016200011e81602581527f77697468647261772074696d652073686f756c64206265206d6f7265207468616020820152646e206e6f7760d81b604082015260600190565b634e487b7160e01b600052602260045260246000fd5b600281046001821680620003b357607f821691505b602082108103620003c857620003c862000388565b50919050565b60006200011e620003dc8381565b90565b620003ea83620003ce565b815460001960089490940293841b1916921b91909117905550565b600062000414818484620003df565b505050565b8181101562000438576200042f60008262000405565b60010162000419565b5050565b601f82111562000414576000818152602090206020601f85010481016020851015620004655750805b620004796020601f86010483018262000419565b5050505050565b81516001600160401b038111156200049c576200049c62000158565b620004a882546200039e565b620004b58282856200043c565b6020601f831160018114620004ec5760008415620004d35750858201515b600019600886021c198116600286021786555062000548565b600085815260208120601f198616915b828110156200051e5788850151825560209485019460019092019101620004fc565b868310156200053b5784890151600019601f89166008021c191682555b6001600288020188555050505b505050505050565b61096680620005606000396000f3fe608060405234801561001057600080fd5b506004361061009e5760003560e01c80637fc0254d116100665780637fc0254d146100fc5780638da5cb5b14610104578063cdc184241461011e578063f2fde38b14610131578063fc0c546a1461014457600080fd5b806306fdde03146100a357806345cb3dde146100c157806350baa622146100d757806368646cf0146100ec578063715018a6146100f4575b600080fd5b6100ab610164565b6040516100b8919061060d565b60405180910390f35b6100ca60035481565b6040516100b8919061062d565b6100ea6100e5366004610659565b6101f2565b005b6100ca610388565b6100ea6103ff565b6100ea610413565b6000546001600160a01b03165b6040516100b8919061069c565b600254610111906001600160a01b031681565b6100ea61013f3660046106be565b610503565b600154610157906001600160a01b031681565b6040516100b891906106fe565b6004805461017190610722565b80601f016020809104026020016040519081016040528092919081815260200182805461019d90610722565b80156101ea5780601f106101bf576101008083540402835291602001916101ea565b820191906000526020600020905b8154815290600101906020018083116101cd57829003601f168201915b505050505081565b6001546040516370a0823160e01b81526001600160a01b03909116906370a082319061022290309060040161069c565b602060405180830381865afa15801561023f573d6000803e3d6000fd5b505050506040513d601f19601f820116820180604052508101906102639190610759565b81101561028b5760405162461bcd60e51b8152600401610282906107bb565b60405180910390fd5b6002546001600160a01b031633146102b55760405162461bcd60e51b8152600401610282906107fb565b60035442116102d65760405162461bcd60e51b81526004016102829061082e565b60015460405163a9059cbb60e01b81526001600160a01b039091169063a9059cbb90610308903390859060040161083e565b6020604051808303816000875af1158015610327573d6000803e3d6000fd5b505050506040513d601f19601f8201168201806040525081019061034b919061086c565b507fa4fa6d4c08e67b66804f329195ed12feecfe9057e79e17edf30ff90f6cf37d8f428260405161037d92919061088d565b60405180910390a150565b6001546040516370a0823160e01b81526000916001600160a01b0316906370a08231906103b990309060040161069c565b602060405180830381865afa1580156103d6573d6000803e3d6000fd5b505050506040513d601f19601f820116820180604052508101906103fa9190610759565b905090565b61040761053d565b6104116000610567565b565b6002546001600160a01b0316331461043d5760405162461bcd60e51b8152600401610282906107fb565b600354421161045e5760405162461bcd60e51b81526004016102829061082e565b6001546040516370a0823160e01b81526000916001600160a01b0316906370a082319061048f90309060040161069c565b602060405180830381865afa1580156104ac573d6000803e3d6000fd5b505050506040513d601f19601f820116820180604052508101906104d09190610759565b60015460405163a9059cbb60e01b81529192506001600160a01b03169063a9059cbb90610308903390859060040161083e565b61050b61053d565b6001600160a01b0381166105315760405162461bcd60e51b8152600401610282906108de565b61053a81610567565b50565b6000546001600160a01b031633146104115760405162461bcd60e51b815260040161028290610920565b600080546001600160a01b038381166001600160a01b0319831681178455604051919092169283917f8be0079c531659141344cd1fd0a4f28419497f9722a3daafe3b4186f6b6457e09190a35050565b60005b838110156105d25781810151838201526020016105ba565b50506000910152565b60006105e5825190565b8084526020840193506105fc8185602086016105b7565b601f01601f19169290920192915050565b6020808252810161061e81846105db565b9392505050565b805b82525050565b6020810161063b8284610625565b92915050565b805b811461053a57600080fd5b803561063b81610641565b60006020828403121561066e5761066e600080fd5b600061067a848461064e565b949350505050565b60006001600160a01b03821661063b565b61062781610682565b6020810161063b8284610693565b61064381610682565b803561063b816106aa565b6000602082840312156106d3576106d3600080fd5b600061067a84846106b3565b600061063b82610682565b600061063b826106df565b610627816106ea565b6020810161063b82846106f5565b634e487b7160e01b600052602260045260246000fd5b60028104600182168061073657607f821691505b6020821081036107485761074861070c565b50919050565b805161063b81610641565b60006020828403121561076e5761076e600080fd5b600061067a848461074e565b602181526000602082017f576974686472617720616d6f756e74206973206578636565642062616c616e638152606560f81b602082015291505b5060400190565b6020808252810161063b8161077a565b60168152600060208201752cb7ba9030b932903737ba103bb4ba34323930bbb2b960511b815291505b5060200190565b6020808252810161063b816107cb565b600c81526000602082016b139bdd081d1a5b59481e595d60a21b815291506107f4565b6020808252810161063b8161080b565b6040810161084c8285610693565b61061e6020830184610625565b801515610643565b805161063b81610859565b60006020828403121561088157610881600080fd5b600061067a8484610861565b6040810161084c8285610625565b602681526000602082017f4f776e61626c653a206e6577206f776e657220697320746865207a65726f206181526564647265737360d01b602082015291506107b4565b6020808252810161063b8161089b565b60208082527f4f776e61626c653a2063616c6c6572206973206e6f7420746865206f776e6572910190815260006107f4565b6020808252810161063b816108ee56fea26469706673582212200c02160d6485758d5d72daa1e47b0a920f91d86a0f9ba71ff59047643655cd0664736f6c63430008120033a2646970667358221220e6f777963fa6f809ddd162bce0912b2429630854205c9830c28178e49ab1b40564736f6c63430008120033",
  "immutableReferences": {},
  "source": "pragma solidity ^0.8.0;\n\nimport \"@openzeppelin/contracts/access/Ownable.sol\";\nimport \"@openzeppelin/contracts/security/ReentrancyGuard.sol\";\nimport \"@openzeppelin/contracts/utils/math/SafeMath.sol\";\nimport \"@openzeppelin/contracts/token/ERC20/utils/SafeERC20.sol\";\nimport \"@openzeppelin/contracts/token/ERC20/ERC20.sol\";\nimport \"./TokenLocker.sol\";\n\ncontract TokenLockerFactory is Ownable {\n    using SafeMath for uint256;\n    using SafeERC20 for ERC20;\n\n    uint256 public lockerCount = 0;\n    uint256 public fee = 0;\n\n    struct lockerInfo {\n        uint256 lockerId;\n        address tokenAddress;\n        address creator;\n        uint256 ramaining;\n        address withdrawer;\n        uint256 withdrawTime;\n    }\n\n\n    event LockerCreated(uint256 lockerId, address indexed lockerAddress, address tokenAddress);\n\n    constructor(\n    ){\n\n    }\n\n    function createLocker(\n        ERC20 _tokenAddress,\n        string memory _name,\n        uint256 _lockAmount,\n        address _withdrawer,\n        uint256 _withdrawTime\n        ) payable public returns(address){\n        require(msg.value == fee, 'Fee amount is required');\n\n        TokenLocker tokenLocker = new TokenLocker(_tokenAddress, _name, _withdrawer, _withdrawTime);\n        tokenLocker.transferOwnership(msg.sender);\n\n        _tokenAddress.safeTransferFrom(\n                msg.sender,\n                address(tokenLocker),\n                _lockAmount\n            );\n\n        emit LockerCreated(lockerCount, address(tokenLocker), address(_tokenAddress));\n        lockerCount++;\n        return address(tokenLocker);\n\n    }\n\n    function withdrawFee() public onlyOwner{\n        (bool success, ) = msg.sender.call{value: address(this).balance}(\"\");\n        require(success, \"Transfer failed.\");\n    }\n\n    function setFee(uint256 amount) public onlyOwner{\n        fee = amount;\n    }\n}",
  "sourcePath": "/Users/vitaliyshulik/Programming/Work/OnOut/LAUNCHPAD/launchpad/contracts/TokenLockerFactory.sol",
  "compiler": {
    "name": "solc",
    "version": "0.8.18+commit.87f61d96.Emscripten.clang"
  },
  "schemaVersion": "3.4.8",
  "updatedAt": "2023-02-18T03:25:39.794Z",
  "networkType": "ethereum",
  "devdoc": {
    "kind": "dev",
    "methods": {
      "owner()": {
        "details": "Returns the address of the current owner."
      },
      "renounceOwnership()": {
        "details": "Leaves the contract without owner. It will not be possible to call `onlyOwner` functions anymore. Can only be called by the current owner. NOTE: Renouncing ownership will leave the contract without an owner, thereby removing any functionality that is only available to the owner."
      },
      "transferOwnership(address)": {
        "details": "Transfers ownership of the contract to a new account (`newOwner`). Can only be called by the current owner."
      }
    },
    "version": 1
  },
  "userdoc": {
    "kind": "user",
    "methods": {},
    "version": 1
  }
}