{
  "contractName": "TokenLockerFactory",
  "abi": [
    {
      "inputs": [],
      "stateMutability": "nonpayable",
      "type": "constructor"
    },
    {
      "anonymous": false,
      "inputs": [
        {
          "indexed": false,
          "internalType": "uint256",
          "name": "lockerId",
          "type": "uint256"
        },
        {
          "indexed": true,
          "internalType": "address",
          "name": "lockerAddress",
          "type": "address"
        },
        {
          "indexed": false,
          "internalType": "address",
          "name": "tokenAddress",
          "type": "address"
        }
      ],
      "name": "LockerCreated",
      "type": "event"
    },
    {
      "anonymous": false,
      "inputs": [
        {
          "indexed": true,
          "internalType": "address",
          "name": "previousOwner",
          "type": "address"
        },
        {
          "indexed": true,
          "internalType": "address",
          "name": "newOwner",
          "type": "address"
        }
      ],
      "name": "OwnershipTransferred",
      "type": "event"
    },
    {
      "inputs": [],
      "name": "fee",
      "outputs": [
        {
          "internalType": "uint256",
          "name": "",
          "type": "uint256"
        }
      ],
      "stateMutability": "view",
      "type": "function",
      "constant": true
    },
    {
      "inputs": [],
      "name": "lockerCount",
      "outputs": [
        {
          "internalType": "uint256",
          "name": "",
          "type": "uint256"
        }
      ],
      "stateMutability": "view",
      "type": "function",
      "constant": true
    },
    {
      "inputs": [],
      "name": "owner",
      "outputs": [
        {
          "internalType": "address",
          "name": "",
          "type": "address"
        }
      ],
      "stateMutability": "view",
      "type": "function",
      "constant": true
    },
    {
      "inputs": [],
      "name": "renounceOwnership",
      "outputs": [],
      "stateMutability": "nonpayable",
      "type": "function"
    },
    {
      "inputs": [
        {
          "internalType": "address",
          "name": "newOwner",
          "type": "address"
        }
      ],
      "name": "transferOwnership",
      "outputs": [],
      "stateMutability": "nonpayable",
      "type": "function"
    },
    {
      "inputs": [
        {
          "internalType": "contract ERC20",
          "name": "_tokenAddress",
          "type": "address"
        },
        {
          "internalType": "string",
          "name": "_name",
          "type": "string"
        },
        {
          "internalType": "uint256",
          "name": "_lockAmount",
          "type": "uint256"
        },
        {
          "internalType": "address",
          "name": "_withdrawer",
          "type": "address"
        },
        {
          "internalType": "uint256",
          "name": "_withdrawTime",
          "type": "uint256"
        }
      ],
      "name": "createLocker",
      "outputs": [
        {
          "internalType": "address",
          "name": "",
          "type": "address"
        }
      ],
      "stateMutability": "payable",
      "type": "function",
      "payable": true
    },
    {
      "inputs": [],
      "name": "withdrawFee",
      "outputs": [],
      "stateMutability": "nonpayable",
      "type": "function"
    },
    {
      "inputs": [
        {
          "internalType": "uint256",
          "name": "amount",
          "type": "uint256"
        }
      ],
      "name": "setFee",
      "outputs": [],
      "stateMutability": "nonpayable",
      "type": "function"
    }
  ],
  "bytecode": "0x60806040526000600155600060025534801561001a57600080fd5b5061002433610029565b610079565b600080546001600160a01b038381166001600160a01b0319831681178455604051919092169283917f8be0079c531659141344cd1fd0a4f28419497f9722a3daafe3b4186f6b6457e09190a35050565b611c97806100886000396000f3fe608060405260043610620000855760003560e01c8063ccd96eb61162000054578063ccd96eb61462000118578063ddca3f43146200013f578063e941fa781462000157578063f2fde38b146200016f57600080fd5b806303f3dbac146200008a57806369fe0e2d14620000b9578063715018a614620000e05780638da5cb5b14620000f8575b600080fd5b620000a16200009b36600462000869565b62000194565b604051620000b091906200091b565b60405180910390f35b348015620000c657600080fd5b50620000de620000d83660046200092b565b620002ec565b005b348015620000ed57600080fd5b50620000de6200031e565b3480156200010557600080fd5b506000546001600160a01b0316620000a1565b3480156200012557600080fd5b506200013060015481565b604051620000b0919062000957565b3480156200014c57600080fd5b506200013060025481565b3480156200016457600080fd5b50620000de62000359565b3480156200017c57600080fd5b50620000de6200018e36600462000967565b6200040c565b60006002543414620001c35760405162461bcd60e51b8152600401620001ba90620009bc565b60405180910390fd5b600086868585604051620001d790620006db565b620001e6949392919062000a60565b604051809103906000f08015801562000203573d6000803e3d6000fd5b5060405163f2fde38b60e01b81529091506001600160a01b0382169063f2fde38b90620002359033906004016200091b565b600060405180830381600087803b1580156200025057600080fd5b505af115801562000265573d6000803e3d6000fd5b5062000281925050506001600160a01b0388163383886200046d565b806001600160a01b03167f4fd7b129e67605fe15d5e55ba0e969876d1549f11dc6aa106a702d51b27f5f4d60015489604051620002c092919062000aa4565b60405180910390a260018054906000620002da8362000ad9565b90915550909150505b95945050505050565b6000546001600160a01b03163314620003195760405162461bcd60e51b8152600401620001ba9062000b29565b600255565b6000546001600160a01b031633146200034b5760405162461bcd60e51b8152600401620001ba9062000b29565b620003576000620004cf565b565b6000546001600160a01b03163314620003865760405162461bcd60e51b8152600401620001ba9062000b29565b6000336001600160a01b031647604051620003a19062000b3b565b60006040518083038185875af1925050503d8060008114620003e0576040519150601f19603f3d011682016040523d82523d6000602084013e620003e5565b606091505b5050905080620004095760405162461bcd60e51b8152600401620001ba9062000b6c565b50565b6000546001600160a01b03163314620004395760405162461bcd60e51b8152600401620001ba9062000b29565b6001600160a01b038116620004625760405162461bcd60e51b8152600401620001ba9062000bc4565b6200040981620004cf565b620004c9846323b872dd60e01b858585604051602401620004919392919062000bd6565b60408051601f198184030181529190526020810180516001600160e01b03166001600160e01b0319909316929092179091526200051f565b50505050565b600080546001600160a01b038381166001600160a01b0319831681178455604051919092169283917f8be0079c531659141344cd1fd0a4f28419497f9722a3daafe3b4186f6b6457e09190a35050565b600062000576826040518060400160405280602081526020017f5361666545524332303a206c6f772d6c6576656c2063616c6c206661696c6564815250856001600160a01b0316620005bb9092919063ffffffff16565b805190915015620005b6578080602001905181019062000597919062000c1a565b620005b65760405162461bcd60e51b8152600401620001ba9062000c87565b505050565b6060620005cc8484600085620005d6565b90505b9392505050565b606082471015620005fb5760405162461bcd60e51b8152600401620001ba9062000cdd565b843b6200061c5760405162461bcd60e51b8152600401620001ba9062000d24565b600080866001600160a01b031685876040516200063a919062000d5b565b60006040518083038185875af1925050503d806000811462000679576040519150601f19603f3d011682016040523d82523d6000602084013e6200067e565b606091505b5091509150620006908282866200069d565b925050505b949350505050565b60608315620006ae575081620005cf565b825115620006bf5782518084602001fd5b8160405162461bcd60e51b8152600401620001ba919062000d69565b610ee58062000d7d83390190565b60006001600160a01b0382165b92915050565b6000620006f682620006e9565b6200071481620006fc565b81146200040957600080fd5b8035620006f68162000709565b634e487b7160e01b600052604160045260246000fd5b601f19601f830116810181811067ffffffffffffffff821117156200076c576200076c6200072d565b6040525050565b60006200077f60405190565b90506200078d828262000743565b919050565b600067ffffffffffffffff821115620007af57620007af6200072d565b601f19601f83011660200192915050565b82818337506000910152565b6000620007e3620007dd8462000792565b62000773565b905082815260208101848484011115620008005762000800600080fd5b6200080d848285620007c0565b509392505050565b600082601f8301126200082b576200082b600080fd5b813562000695848260208601620007cc565b8062000714565b8035620006f6816200083d565b6200071481620006e9565b8035620006f68162000851565b600080600080600060a08688031215620008865762000886600080fd5b600062000894888862000720565b955050602086013567ffffffffffffffff811115620008b657620008b6600080fd5b620008c48882890162000815565b9450506040620008d78882890162000844565b9350506060620008ea888289016200085c565b9250506080620008fd8882890162000844565b9150509295509295909350565b6200091581620006e9565b82525050565b60208101620006f682846200090a565b600060208284031215620009425762000942600080fd5b600062000695848462000844565b8062000915565b60208101620006f6828462000950565b6000602082840312156200097e576200097e600080fd5b60006200069584846200085c565b601681526000602082017511995948185b5bdd5b9d081a5cc81c995c5d5a5c995960521b815291505b5060200190565b60208082528101620006f6816200098c565b60006001600160a01b038216620006f6565b6000620006f682620009ce565b6000620006f682620009e0565b6200091581620009ed565b60005b8381101562000a2257818101518382015260200162000a08565b50506000910152565b600062000a36825190565b80845260208401935062000a4f81856020860162000a05565b601f01601f19169290920192915050565b6080810162000a708287620009fa565b818103602083015262000a84818662000a2b565b905062000a9560408301856200090a565b620002e3606083018462000950565b6040810162000ab4828562000950565b620005cf60208301846200090a565b634e487b7160e01b600052601160045260246000fd5b6000600019820362000aef5762000aef62000ac3565b5060010190565b60208082527f4f776e61626c653a2063616c6c6572206973206e6f7420746865206f776e657291019081526000620009b5565b60208082528101620006f68162000af6565b600081620006f6565b601081526000602082016f2a3930b739b332b9103330b4b632b21760811b81529150620009b5565b60208082528101620006f68162000b44565b602681526000602082017f4f776e61626c653a206e6577206f776e657220697320746865207a65726f206181526564647265737360d01b602082015291505b5060400190565b60208082528101620006f68162000b7e565b6060810162000be682866200090a565b62000bf560208301856200090a565b62000695604083018462000950565b80151562000714565b8051620006f68162000c04565b60006020828403121562000c315762000c31600080fd5b600062000695848462000c0d565b602a81526000602082017f5361666545524332303a204552433230206f7065726174696f6e20646964206e8152691bdd081cdd58d8d9595960b21b6020820152915062000bbd565b60208082528101620006f68162000c3f565b602681526000602082017f416464726573733a20696e73756666696369656e742062616c616e636520666f8152651c8818d85b1b60d21b6020820152915062000bbd565b60208082528101620006f68162000c99565b601d81526000602082017f416464726573733a2063616c6c20746f206e6f6e2d636f6e747261637400000081529150620009b5565b60208082528101620006f68162000cef565b600062000d41825190565b62000d5181856020860162000a05565b9290920192915050565b6000620005cf828462000d36565b60208082528101620005cf818462000a2b56fe60806040523480156200001157600080fd5b5060405162000ee538038062000ee58339810160408190526200003491620002b4565b6200003f33620000c1565b4281116200006a5760405162461bcd60e51b815260040162000061906200033e565b60405180910390fd5b600180546001600160a01b0319166001600160a01b038616179055600462000093848262000485565b50600280546001600160a01b0319166001600160a01b03939093169290921790915560035550620005559050565b600080546001600160a01b038381166001600160a01b0319831681178455604051919092169283917f8be0079c531659141344cd1fd0a4f28419497f9722a3daafe3b4186f6b6457e09190a35050565b60006001600160a01b0382165b92915050565b60006200011e8262000111565b6200013c8162000124565b81146200014857600080fd5b50565b80516200011e8162000131565b634e487b7160e01b600052604160045260246000fd5b601f19601f83011681018181106001600160401b038211171562000196576200019662000158565b6040525050565b6000620001a960405190565b9050620001b782826200016e565b919050565b60006001600160401b03821115620001d857620001d862000158565b601f19601f83011660200192915050565b60005b8381101562000206578181015183820152602001620001ec565b50506000910152565b6000620002266200022084620001bc565b6200019d565b905082815260208101848484011115620002435762000243600080fd5b62000250848285620001e9565b509392505050565b600082601f8301126200026e576200026e600080fd5b8151620002808482602086016200020f565b949350505050565b6200013c8162000111565b80516200011e8162000288565b806200013c565b80516200011e81620002a0565b60008060008060808587031215620002cf57620002cf600080fd5b6000620002dd87876200014b565b94505060208501516001600160401b03811115620002fe57620002fe600080fd5b6200030c8782880162000258565b93505060406200031f8782880162000293565b92505060606200033287828801620002a7565b91505092959194509250565b602080825281016200011e81602581527f77697468647261772074696d652073686f756c64206265206d6f7265207468616020820152646e206e6f7760d81b604082015260600190565b634e487b7160e01b600052602260045260246000fd5b600281046001821680620003b357607f821691505b602082108103620003c857620003c862000388565b50919050565b60006200011e620003dc8381565b90565b620003ea83620003ce565b81546008840282811b60001990911b908116901990911617825550505050565b600062000419818484620003df565b505050565b818110156200043d57620004346000826200040a565b6001016200041e565b5050565b601f82111562000419576000818152602090206020601f850104810160208510156200046a5750805b6200047e6020601f8601048301826200041e565b5050505050565b81516001600160401b03811115620004a157620004a162000158565b620004ad82546200039e565b620004ba82828562000441565b6020601f831160018114620004f15760008415620004d85750858201515b600019600886021c19811660028602178655506200054d565b600085815260208120601f198616915b8281101562000523578885015182556020948501946001909201910162000501565b86831015620005405784890151600019601f89166008021c191682555b6001600288020188555050505b505050505050565b61098080620005656000396000f3fe608060405234801561001057600080fd5b506004361061009e5760003560e01c80637fc0254d116100665780637fc0254d146100fc5780638da5cb5b14610104578063cdc184241461011e578063f2fde38b14610131578063fc0c546a1461014457600080fd5b806306fdde03146100a357806345cb3dde146100c157806350baa622146100d757806368646cf0146100ec578063715018a6146100f4575b600080fd5b6100ab610164565b6040516100b89190610627565b60405180910390f35b6100ca60035481565b6040516100b89190610647565b6100ea6100e5366004610673565b6101f2565b005b6100ca610388565b6100ea6103ff565b6100ea610435565b6000546001600160a01b03165b6040516100b891906106b6565b600254610111906001600160a01b031681565b6100ea61013f3660046106d8565b610525565b600154610157906001600160a01b031681565b6040516100b89190610718565b600480546101719061073c565b80601f016020809104026020016040519081016040528092919081815260200182805461019d9061073c565b80156101ea5780601f106101bf576101008083540402835291602001916101ea565b820191906000526020600020905b8154815290600101906020018083116101cd57829003601f168201915b505050505081565b6001546040516370a0823160e01b81526001600160a01b03909116906370a08231906102229030906004016106b6565b602060405180830381865afa15801561023f573d6000803e3d6000fd5b505050506040513d601f19601f820116820180604052508101906102639190610773565b81101561028b5760405162461bcd60e51b8152600401610282906107d5565b60405180910390fd5b6002546001600160a01b031633146102b55760405162461bcd60e51b815260040161028290610815565b60035442116102d65760405162461bcd60e51b815260040161028290610848565b60015460405163a9059cbb60e01b81526001600160a01b039091169063a9059cbb906103089033908590600401610858565b6020604051808303816000875af1158015610327573d6000803e3d6000fd5b505050506040513d601f19601f8201168201806040525081019061034b9190610886565b507fa4fa6d4c08e67b66804f329195ed12feecfe9057e79e17edf30ff90f6cf37d8f428260405161037d9291906108a7565b60405180910390a150565b6001546040516370a0823160e01b81526000916001600160a01b0316906370a08231906103b99030906004016106b6565b602060405180830381865afa1580156103d6573d6000803e3d6000fd5b505050506040513d601f19601f820116820180604052508101906103fa9190610773565b905090565b6000546001600160a01b031633146104295760405162461bcd60e51b8152600401610282906108e7565b6104336000610581565b565b6002546001600160a01b0316331461045f5760405162461bcd60e51b815260040161028290610815565b60035442116104805760405162461bcd60e51b815260040161028290610848565b6001546040516370a0823160e01b81526000916001600160a01b0316906370a08231906104b19030906004016106b6565b602060405180830381865afa1580156104ce573d6000803e3d6000fd5b505050506040513d601f19601f820116820180604052508101906104f29190610773565b60015460405163a9059cbb60e01b81529192506001600160a01b03169063a9059cbb906103089033908590600401610858565b6000546001600160a01b0316331461054f5760405162461bcd60e51b8152600401610282906108e7565b6001600160a01b0381166105755760405162461bcd60e51b81526004016102829061093a565b61057e81610581565b50565b600080546001600160a01b038381166001600160a01b0319831681178455604051919092169283917f8be0079c531659141344cd1fd0a4f28419497f9722a3daafe3b4186f6b6457e09190a35050565b60005b838110156105ec5781810151838201526020016105d4565b50506000910152565b60006105ff825190565b8084526020840193506106168185602086016105d1565b601f01601f19169290920192915050565b6020808252810161063881846105f5565b9392505050565b805b82525050565b60208101610655828461063f565b92915050565b805b811461057e57600080fd5b80356106558161065b565b60006020828403121561068857610688600080fd5b60006106948484610668565b949350505050565b60006001600160a01b038216610655565b6106418161069c565b6020810161065582846106ad565b61065d8161069c565b8035610655816106c4565b6000602082840312156106ed576106ed600080fd5b600061069484846106cd565b60006106558261069c565b6000610655826106f9565b61064181610704565b60208101610655828461070f565b634e487b7160e01b600052602260045260246000fd5b60028104600182168061075057607f821691505b60208210810361076257610762610726565b50919050565b80516106558161065b565b60006020828403121561078857610788600080fd5b60006106948484610768565b602181526000602082017f576974686472617720616d6f756e74206973206578636565642062616c616e638152606560f81b602082015291505b5060400190565b6020808252810161065581610794565b60168152600060208201752cb7ba9030b932903737ba103bb4ba34323930bbb2b960511b815291505b5060200190565b60208082528101610655816107e5565b600c81526000602082016b139bdd081d1a5b59481e595d60a21b8152915061080e565b6020808252810161065581610825565b6040810161086682856106ad565b610638602083018461063f565b80151561065d565b805161065581610873565b60006020828403121561089b5761089b600080fd5b6000610694848461087b565b60408101610866828561063f565b60208082527f4f776e61626c653a2063616c6c6572206973206e6f7420746865206f776e65729101908152600061080e565b60208082528101610655816108b5565b602681526000602082017f4f776e61626c653a206e6577206f776e657220697320746865207a65726f206181526564647265737360d01b602082015291506107ce565b60208082528101610655816108f756fea2646970667358221220280efd43c3cfe832923d1ed57b0e6caf1d6b1cf715c4538afa53c86ca1a12ddf64736f6c63430008100033a2646970667358221220a5c59316451698fd36ec2773001ab91d66a7a039f0ff4149be8199c83bc949f064736f6c63430008100033",
  "immutableReferences": {},
  "source": "pragma solidity ^0.8.0;\n\nimport \"@openzeppelin/contracts/access/Ownable.sol\";\nimport \"@openzeppelin/contracts/security/ReentrancyGuard.sol\";\nimport \"@openzeppelin/contracts/utils/math/SafeMath.sol\";\nimport \"@openzeppelin/contracts/token/ERC20/utils/SafeERC20.sol\";\nimport \"@openzeppelin/contracts/token/ERC20/ERC20.sol\";\nimport \"./TokenLocker.sol\";\n\ncontract TokenLockerFactory is Ownable {\n    using SafeMath for uint256;\n    using SafeERC20 for ERC20;\n    \n    uint256 public lockerCount = 0;\n    uint256 public fee = 0;\n    \n    struct lockerInfo {\n        uint256 lockerId;\n        address tokenAddress;\n        address creator;\n        uint256 ramaining;\n        address withdrawer;\n        uint256 withdrawTime;\n    }\n\n\n    event LockerCreated(uint256 lockerId, address indexed lockerAddress, address tokenAddress);\n\n    constructor( \n    ){\n\n    }\n\n    function createLocker(\n        ERC20 _tokenAddress,\n        string memory _name,\n        uint256 _lockAmount, \n        address _withdrawer, \n        uint256 _withdrawTime\n        ) payable public returns(address){\n            \n        require(msg.value == fee, 'Fee amount is required');\n\n        TokenLocker tokenLocker = new TokenLocker(_tokenAddress,_name, _withdrawer, _withdrawTime);\n        tokenLocker.transferOwnership(msg.sender);\n\n        _tokenAddress.safeTransferFrom(\n                msg.sender,\n                address(tokenLocker),\n                _lockAmount\n            );\n\n        emit LockerCreated(lockerCount, address(tokenLocker), address(_tokenAddress));\n        lockerCount++;\n        return address(tokenLocker);\n\n    }\n\n    function withdrawFee() public onlyOwner{\n        (bool success, ) = msg.sender.call{value: address(this).balance}(\"\");\n        require(success, \"Transfer failed.\");\n    }\n\n    function setFee(uint256 amount) public onlyOwner{\n        fee = amount;\n    }\n}",
  "sourcePath": "/Users/vitaliyshulik/Programming/Work/NextChain/launchpad/contracts/TokenLockerFactory.sol",
  "compiler": {
    "name": "solc",
    "version": "0.8.16+commit.07a7930e.Emscripten.clang"
  },
  "schemaVersion": "3.4.8",
  "updatedAt": "2022-08-19T09:19:04.702Z",
  "networkType": "ethereum",
  "devdoc": {
    "kind": "dev",
    "methods": {
      "owner()": {
        "details": "Returns the address of the current owner."
      },
      "renounceOwnership()": {
        "details": "Leaves the contract without owner. It will not be possible to call `onlyOwner` functions anymore. Can only be called by the current owner. NOTE: Renouncing ownership will leave the contract without an owner, thereby removing any functionality that is only available to the owner."
      },
      "transferOwnership(address)": {
        "details": "Transfers ownership of the contract to a new account (`newOwner`). Can only be called by the current owner."
      }
    },
    "version": 1
  },
  "userdoc": {
    "kind": "user",
    "methods": {},
    "version": 1
  }
}